:020000040800F2
:10000000380F00245D030008C1560008214A00088B
:10001000B956000819140008B16300080000000078
:10002000000000000000000000000000B1590008BE
:100030007914000800000000F9560008B9590008BA
:1000400077030008770300087703000877030008A8
:100050007703000877030008770300087703000898
:100060007703000877030008770300087703000888
:100070007703000877030008770300087703000878
:100080007703000877030008770300087703000868
:100090007703000877030008770300087703000858
:1000A0007703000877030008770300087703000848
:1000B0007703000877030008770300087703000838
:1000C0007703000877030008770300087703000828
:1000D0007703000877030008770300087703000818
:1000E000811400087703000800000000770300086F
:1000F00077030008770300087703000877030008F8
:1001000077030008770300087703000877030008E7
:1001100077030008770300087703000877030008D7
:1001200077030008770300087703000877030008C7
:1001300077030008770300087703000877030008B7
:1001400000000000000000000000000000000000AF
:100150007703000877030008770300087703000897
:100160007703000877030008770300087703000887
:100170007703000877030008770300087703000877
:100180007703000877030008770300087703000867
:100190007703000877030008770300087703000857
:1001A0007703000877030008770300087703000847
:1001B0007703000877030008770300087703000837
:1001C0007703000877030008770300087703000827
:1001D0007703000877030008770300087703000817
:1001E0007703000877030008770300087703000807
:1001F00077030008770300087703000877030008F7
:1002000077030008770300087703000877030008E6
:1002100077030008770300087703000877030008D6
:100220007703000877030008770300080000000048
:100230007703000877030008000000007703000838
:1002400077030008770300087703000877030008A6
:100250007703000877030008770300087703000896
:100260007703000877030008770300087703000886
:1002700077030008770300087703000800000000F8
:1002800077030008770300087703000800000000E8
:10029000000000007703000800F002F800F04FF8BB
:1002A0000AA090E8000C82448344AAF10107DA45D1
:1002B00001D100F044F8AFF2090EBAE80F0013F0D4
:1002C000010F18BFFB1A43F00103184750660000E6
:1002D00070660000103A24BF78C878C1FAD8520777
:1002E00024BF30C830C144BF04680C6070470000B0
:1002F0000023002400250026103A28BF78C1FBD82F
:10030000520728BF30C148BF0B607047642900F016
:100310001981782900F05281632900F03D83002083
:1003200070471FB506F0C4F99DE8030000F00CFF0C
:1003300000F08AFC1FBD10B500F0EFFC10BD00F00E
:100340001FFD1146FFF7EDFF06F03EF900F0CCFE71
:1003500003B4FFF7F0FF03BC00F0C8FF0948804773
:1003600009480047FEE7FEE7FEE7FEE7FEE7FEE797
:10037000FEE7FEE7FEE7FEE704480549054A064BAF
:1003800070470000995A00089902000838090024B3
:10039000380F0024380B0024380B002453EA020CD9
:1003A00000F069802DE9F04B4FF00006002B1FBFD5
:1003B000B3FA83F503FA05F424FA05F65E4012BF9A
:1003C0001643B2FA82F502FA05F4C5F120051EBF04
:1003D00022FA05FC44EA0C04203556EA044C4FEAA4
:1003E000144418BF641C4FF000084FF000099042FD
:1003F00071EB030C39D3002919BFB1FA81F701FA67
:1004000007F6B0FA80F700FA07F6C7F120071EBF1B
:1004100020FA07FC46EA0C062037B6FBF4FCA7EBF3
:100420000507103F07F01F0BCBF120062CFA06F64C
:100430000CFA0BFB44BFB3460026202FA4BF5E4638
:100440004FF0000B5BEA060C08BF4FF0010B19EBF5
:100450000B0948EB0608ABFB027C06FB02CC0BFB4E
:1004600003CCC01B71EB0C01C1E70B4602464146B1
:100470004846BDE8F08B13B5084318BF4FF0FF3076
:100480000146AFF30080BDE81C4070470FB404493B
:1004900010B503AA029800F08BFA10BC5DF814FBAB
:1004A0009400002470B5044685690068C10601D532
:1004B000302600E02026C00707D070BDD4E9012116
:1004C00030469047206A401C20626D1EF6D570BDF4
:1004D00070B5044685690078C00707D170BDD4E9BE
:1004E000012120209047206A401C20626D1EF6D515
:1004F00070BD70B50C460546012A05D028788006E7
:1005000000D5EA69002302E0012305E05B1C934269
:1005100002D2E05C0028F9D1A869E618C01AA861E7
:10052000286A184428622846FFF7BCFF04E0D5E992
:10053000012114F8010B9047B442F8D32846FFF785
:10054000C7FF70BD2DE9F0410646002410687529EB
:10055000314616A510D0AFF30080002802DA4042E1
:1005600013A507E031688A0701D512A502E0490703
:1005700004D511A5012401E0AFF3008000210A2277
:1005800006F1240709E0B0FBF2FCB0FBF2F302FB3A
:100590001C00303078541846491C0028F3D12346FB
:1005A0002A463046BDE8F04100F093B90000000053
:1005B0002D0000002B0000002000000070B5044654
:1005C0000D4621461068AFF300802188090502D549
:1005D0000F4A7A4402E00E4A7A440E32002104F1B6
:1005E000240305E000F00F060009965D5E54491CE7
:1005F0000028F7D120780023000704D5702D02D001
:1006000009B1022311322046BDE8704000F061B903
:10061000F46000002DE9F05F894604464FF0000ABF
:10062000DFF824B1FB44C0F820A02046E1688847E9
:1006300000287DD0252806D0D4E901219047206AE2
:10064000401C2062F1E700255F462046E1688847AC
:100650002028064607DB312E05D2B81910F8200CE9
:1006600008B10543F1E7A80701D525F00405C4F852
:100670001CA00027C4F818A02A2E09D0304606F086
:1006800003F838B304EB8708303EC8F8186019E067
:1006900059F8041B204604EB87029161E168884702
:1006A000012F064618D1E069002820DA25F0200540
:1006B0001DE0D8F8180000EB800006EB4000303851
:1006C000C8F818002046E1688847064605F0DCFFB8
:1006D0000028EED1012F0AD02E2E08D12046E16845
:1006E00088477F1C0646022F45F02005C4DBA06921
:1006F000002803DA404245F00105A061E80701D077
:1007000025F01005A6B1A6F14100192802D820361F
:1007100045F400654A463146204625604D46FFF7C0
:10072000F5FD60B1012807D0ED1D25F0070000E0C0
:1007300007E000F1080978E705F1040975E730469C
:100740007AE7206ABDE8F09FCA60000010B5044651
:1007500003E005F0A0FF401C09D014F8010B054987
:100760000028F6D1BDE810400A2005F094BF4FF0F4
:10077000FF3010BD94000024032A40F2308010F0B6
:10078000030C00F0158011F8013BBCF1020F62442C
:1007900098BF11F801CB00F8013B38BF11F8013BBD
:1007A000A2F1040298BF00F801CB38BF00F8013B6A
:1007B00011F0030300F00E81083AC0F0088051F8F0
:1007C000043B083A51F804CBA0E80810F5E7121DE5
:1007D0005CBF51F8043B40F8043BAFF30080D20704
:1007E00024BF11F8013B11F801CB48BF11F8012BD0
:1007F00024BF00F8013B00F801CB48BF00F8012BF3
:1008000070474FF0000200B51346944696462039D3
:1008100022BFA0E80C50A0E80C50B1F12001BFF4B9
:10082000F7AF090728BFA0E80C5048BF0CC05DF81F
:1008300004EB890028BF40F8042B08BF704748BF6D
:1008400020F8022B11F0804F18BF00F8012B7047E1
:1008500030B44FF0013C50F8042BCCFA52F451F86C
:10086000043BD51A20D1FCB950F8042BCCFA52F431
:1008700051F8043BD51A17D1B4B950F8042BCCFA6F
:1008800052F451F8043BD51A0ED16CB950F8042B30
:10089000CCFA52F451F8043BD51A05D1002CDAD029
:1008A00030BC4FF00000704729BAB1FA81F111F065
:1008B0001801D1F120008440F2D1CA40CB4012F09F
:1008C000FF0213F0FF0330BCD01A70477047704727
:1008D00070472DE9F0470D4699469246044600F1CF
:1008E00024080168880604D5E06921F01001216020
:1008F00000E00120A84201DD471B00E00027A169BC
:100900007A1902EB0900081AA0612078C00602D407
:100910002046FFF7C7FD002608E0D4E901211AF8B8
:1009200006009047206A401C761C20624E45F4DB8E
:100930002078C0060AD52046FFF7B4FD06E0D4E9CA
:10094000012130209047206A401C2062381EA7F108
:100950000107F4DC07E0D4E9012118F8050090470D
:10096000206A401C2062281EA5F10105F3DC204608
:10097000FFF7AEFD2078000602D50220BDE8F08723
:100980000120FBE710B5436913B1AFF3008001E02C
:10099000FFF7AFFD012010BD127800F124010A70AD
:1009A00000224A700122EDE711684FF0FF32E9E7BB
:1009B000074B70B50D467B4400F043F804462846CB
:1009C00000F052F810B14FF0FF3070BD204670BDFE
:1009D000DD5C000010B5203AC0F00B80B1E8185083
:1009E000A0E81850B1E81850A0E81850203ABFF419
:1009F000F5AF5FEA027C24BFB1E81850A0E81850B8
:100A000044BF18C918C0BDE810405FEA827C24BF0B
:100A100051F8043B40F8043B08BF7047D20728BF99
:100A200031F8023B48BF11F8012B28BF20F8023BE8
:100A300048BF00F8012B704701694A1C0261087821
:100A4000704700B58FB0CDE901310021059105490E
:100A50007944CDE9031011466846FFF7DBFD0FB07E
:100A600000BD0000E5FFFFFF007B00F08000704745
:100A70002DE9F04705460C46C86820F4201040F4E4
:100A80008000C860800602D5084600F06EFAE06873
:100A900041F282014FF0FF390140022903D0204684
:100AA00000F00CFAB5E000F42041B1F5004F0FD191
:100AB000C00306D56168E06A884200D808466060D5
:100AC00006E02069E0626060606905F0D1FCA06129
:100AD000A0680022EEB200280DDAE1688B050AD486
:100AE000C043A06041F490302260E0606068411C27
:100AF00061600670A5E0E0689046226040F4005016
:100B0000E060206968BB606905F0B6FC012704F16C
:100B10002405A0B1A08910F4407F08D0E06900F05E
:100B200054F9206118B1E06840F4006016E0E76114
:100B30002561E06820F4407040F480600EE0E069D8
:100B400000F043F900282061F1D0E06840F4006033
:100B500010F4407FE06002D140F48070E0602069D2
:100B60006060E06825696FF0010AC1051FD5616802
:100B7000E06A884200D80846411B04D02246284635
:100B800000F0A6F9F0BBE068010203D5E562C4E914
:100B9000015854E0691CE1626160E16940F4803011
:100BA000491EC4E9021030462E70BDE8F0870102EC
:100BB00002D500F480320AE06068411C6160067072
:100BC000E0680A2E40F48030E06006D00022E16A3E
:100BD0006068814203D90B4602E00122F7E7034631
:100BE000A7895B1B7F0503D4E7699F4200DDE2B163
:100BF000814200D80146E5620F1AC4E90158002B72
:100C000009DD00E005E022461946284600F060F9BB
:100C100008B14846C9E747B1A069E5626560C01BF5
:100C2000A061E06840F01000E060E068000208D5D4
:100C30006168A069E562491B08446560A06150468F
:100C4000B3E73046B1E7000010B542485421FFF742
:100C5000D8FD41485421FFF7D4FD40485421FFF707
:100C6000D0FD3F493B483C4A3F4B08603D490A6044
:100C70003A491960531C0365481C1065012008653A
:100C80003B48344A39A1784400F090F920B93848FB
:100C900078440A3800F031FA37482F4A35A17844B1
:100CA00000F084F920B9344878440A3800F025FA75
:100CB00032482A4A2FA1784400F078F920B92F4809
:100CC00078440A3800F019FA40232248DC00002159
:100CD000224600F0D0F820B125487844543800F07E
:100CE0000CFA1D4822464023002100F0C4F820B130
:100CF00021487844543800F000FA1848224610235E
:100D0000002100F0B8F8002806D01C487844BDE85F
:100D10001040563800F0F1B910BD104870B5006DA4
:100D200020F001040B4800F0B9F90B4800F0B6F9C7
:100D30000A4800F0B3F909E0206D20F001052046D3
:100D400000F0ACF9204600F06FF82C46002CF3D1EF
:100D500070BD00004000002494000024E80000243E
:100D60000000002404000024080000247200000099
:100D7000C25A000077000000B15A00008A5A0000F1
:100D8000754600F0C1F9AE4605006946534620F0AD
:100D90000700854618B020B5FFF7EEFABDE8204001
:100DA0004FF000064FF000074FF000084FF0000B27
:100DB000AC46ACE8C009ACE8C009ACE8C009ACE896
:100DC000C00921F007018D46704770B5064600F056
:100DD0009FF9056806F10B0020F00704B4429CBFA0
:100DE000002070BD2B466A68BAB11068A04210D3CB
:100DF00004F1080188423CBF5068586007D351682D
:100E0000101941601168091B016058601460101DC1
:100E100070BD13465268002AE7D12146284600F0EB
:100E20007FF90028DED170BD70B50446051F00F0C3
:100E30006FF90068002C14BF446870BD002C18BF07
:100E4000AC423CBF20466468F8D301680A18AA4245
:100E500018BF456003D12A6805461144016028681F
:100E60004119A1421CBF6C6070BD61686960216856
:100E70000844286070BD70B5C468A50713D065022A
:100E800011D4B2F5807F09D0B2F5007F06D0B2F55B
:100E9000806F08D1012300F1240106E05D1E6FF090
:100EA0007F46B54201D3012070BD0161C36141603D
:100EB00024F470611143C160002070BDC16821F449
:100EC000001141F08001C160002181600160704724
:100ED0002DE9F047814614460E464FF0FF38324860
:100EE000D5685769054209D03846A16905F000FB6D
:100EF000002811DB2C48C0430540E5602B463246F4
:100F00004946384605F0F8FAA16920F00042B21AC5
:100F100011440028A16103D02046FFF7CFFF4046CF
:100F2000BDE8F08770B504460569C06A616888420B
:100F300000D80846E16821F42011E160C90312D508
:100F4000A84208D02246411B2846FFF7C1FF10B136
:100F50004FF0FF3070BD0020E562C4E90150E06849
:100F600020F48030E060002070BD10B50446C068F9
:100F700020F02000E060A16AA06988420DD02046E0
:100F8000FFF7D0FFE06820F4405040F01000E06030
:100F9000A06AA0612069E062606044F24001E068FC
:100FA0008843E06010BD0000100002002DE9F04110
:100FB0000C461646070047D0104600F06FF8207820
:100FC000611C61280AD0722802D077283CD102E047
:100FD0000125002405E00225042402E0082448F24B
:100FE000020511F8010B2B2806D0622809D011F850
:100FF000010C74280AD00BE045F0030544F002040C
:10100000EFE745F0040544F00104EAE744F010047A
:101010003846214605F038FA411C15D000213161CF
:1010200071604FF40071F560F1617061200704D5C3
:1010300030460222002100F0BDF8306D40F0010082
:1010400030653046BDE8F0810020FBE72DE9F04136
:101050000D460646104C206DC10704D0410804D04F
:1010600020F00104F7E722460EE05420FFF7ADFE22
:1010700007000ED0206D47F0010108435421206580
:101080003846FFF7BEFB3A4629463046BDE8F041F8
:101090008CE70020D6E70000400000242DE9F0474F
:1010A00004464FF000094FF0FF37C568D4E90486C5
:1010B000A80707D02046FFF735FF304605F0CCF9EA
:1010C000002802DA3846BDE8F087280502D54046F8
:1010D000FFF7AAFE4C212046FFF793FB206D20F07E
:1010E000010020654846EEE710B50446AFF30080E6
:1010F0002046BDE81040FFF72BB910B500F0DCF832
:10110000BDE8104000F0D2B8004870473C01002410
:10111000004870474401002470477047704770478B
:1011200038B504460A4600206946AFF3008000281F
:1011300008BF38BD02460099204600F0DDF80120C6
:1011400038BD012000F02CB9F8B5AFF3008005469A
:1011500000200C46102000BF0646A819A0420DD959
:10116000324669460020AFF30080070008BF00F058
:1011700017F90098A04218BF0546C419FFF7C8FF29
:1011800005600746F01D20F007004619284600F0CC
:101190000AF8B44208BFF8BDA21B31463868BDE862
:1011A000F84000F0A9B800210160C0E901107047C3
:1011B000102070472DE9F041044616460D46476958
:1011C000007B80072ED0384605F056F950BB3EB361
:1011D000012E02D0022E25D104E0204600F0A6F810
:1011E00005441DE0384605F043F9E168002841F068
:1011F0001001E16005DA2046FFF760FE0120BDE83E
:10120000F081C9030BD56268E16A914200D81146AA
:10121000A26911442269891A814200DD0846054409
:10122000002D01DA0220EAE7E16A6068E2688142A3
:1012300006D29103E06203D522F4003141F010029E
:10124000A6690027AE4213DCE16A814201D90B4650
:1012500000E0034603EB060C2369ACEB030CAC4542
:1012600006DD814201D98C4600E084469C4505D1CB
:10127000A760276042F02000A5620DE0AD1BE66983
:10128000AE1B8142A66000D90846C01A281A206009
:101290005819606022F0200003490840E0600020F7
:1012A00084F84870ABE70000BFCFD7FF002801D01B
:1012B00000F01CB87047000010B5014602A000F015
:1012C00056F8012010BD000053494752545245447E
:1012D0003A2052656469726563743A2063616E27CF
:1012E00074206F70656E3A200000000001491820DC
:1012F000ABBEFEE726000200034640688C4600288D
:1013000018BF88423CBF03464068F8D318681844A9
:10131000884207D00CF1030020F00700001D411A9D
:10132000521A0146081D0A60FFF77EBD10B501463E
:10133000C268900703D0900607D5886A0AE000F0DB
:101340003FF801210160881E10BD8B694868184470
:101350000B69C01A91F848301BB191F84910401A36
:1013600010BD1103FCD50028FADD401E10BD70B57C
:1013700005460C460A2000E06D1C00F018F835B157
:1013800028780028F8D102E0641C00F010F814B1AD
:1013900020780028F8D1BDE870400A2000F007B896
:1013A00010B500F011F8BDE81040FFF77FBF08B599
:1013B00069468DF800000320ABBE08BD70470000F1
:1013C000004870473C01002410B5012805D00021D9
:1013D00003A0FFF7CCFF012010BD09A1F8E7000032
:1013E00053494752544D454D3A204F7574206F660E
:1013F0002068656170206D656D6F72790000000076
:101400003A2048656170206D656D6F727920636F59
:101410007272757074656400FEE7000000000000E1
:1014200041F20400CEF200000068704700000000A6
:1014300070B5044602F0F4FD4DF683610026C4F257
:101440001B31A0FB0101880C00FB04F5FFF7E8FF4E
:10145000044600BFFFF7E4FFA042FBD06FEA04019F
:1014600000EB060288BF614204465618AE42F1D333
:1014700070BD000000000000704700000000000088
:1014800080B54FF4805001F07FF880BD000000006F
:10149000EFF3108072B600BFFEE70000000000000E
:1014A00040F60011C2F20041097869B1C0F3C621CB
:1014B00040F68002C0F30220C2F20042515C21FAE1
:1014C00000F000F0010070470020704700000000AD
:1014D00070B540F60015C2F2004500BFAE6900F0DD
:1014E000B3F9044604F060FFB042F7D1844201D260
:1014F00003F0A2FD204670BD2DE9F04182B0002925
:1015000004464FF0000065D01646802A62D8204677
:101510000D46FFF7C5FFF0B1FFF7DAFF2746EFF3FF
:101520000581C0F20807002908BFA7B28046B6B1FE
:10153000082E1DD800202946CDE900006846324615
:10154000FFF71AF906F00700DDE9002347EA00403B
:1015500000F1407006E0012002B0BDE8F0810022F9
:1015600000233846414600F04FF802B0BDE8F08154
:1015700000F032FD4FF4E0212A6801EA00446B6874
:1015800047EA0400414600F180700092019300F0A8
:101590003BF810B34FF600014FF60170CFF6FF7124
:1015A00044EA000701EB0624083E0835092E18D34B
:1015B0002A6838466B6841460092019300F024F88F
:1015C0000137A4F50064083E002805F108054FF036
:1015D0000000EBD102B0BDE8F081002002B0BDE810
:1015E000F08100202946CDE9000068463246FFF729
:1015F000C3F8FF204146C7F6FF503840204340F073
:101600000070DDE90023AEE72DE9F04F81B0894697
:101610004FF0805101EAD9014FF00057924607EA96
:1016200092024FF08047084307EA5301104340F20B
:10163000804B009340EA01056FF00606C2F2004BB2
:1016400000F0CEFC00F03F0800F470710BEB0814C2
:1016500045EA813004F10C0740F04061384603F060
:10166000AFFD410102D40136EAD31DE080F0044110
:101670004FEA081301F0004029F0004202444BF801
:101680000320009B2AF0004623F0004382191844EF
:10169000A0603846626004F077FE28B103F0E4FCF5
:1016A000012001B0BDE8F08F03F0D2FC002001B0B2
:1016B000BDE8F08F000000000023FE2998BFFE2A3D
:1016C00001D9184670472DE9F04140F680084FF0E7
:1016D000000C4FF0010EC2F20048002406E000BFEB
:1016E0000CF1010C2034BCF1040F17D020FA0CF5DA
:1016F000ED07F5D09142F3D80D4600BF04EBD506B7
:1017000005F0070701350EFA07F718F8063095427D
:1017100043EA070308F80630F0D9E1E70123BDE802
:10172000F0411846704700002DE9F04140F60017DF
:101730000546C2F200470020884642F26B763870B8
:1017400040F68000C2F200408021CEF2A516FFF7DD
:1017500058F804F015FF396AB14205D17988814201
:1017600003D1F869461C02E03E6278800126012E12
:101770004FF00000FE6116D178704FF48061C7E928
:101780000100F86040F28040C2F20040FFF739F8F3
:1017900000F06AF8012E06461AD14FF000049EB1FF
:1017A00000F05AF811E040F28041C2F2004103E03B
:1017B0001030B0F5806FEBD00A18D3685C01F7D514
:1017C00023F04063D360F3E70020C7E90440BC6125
:1017D000F6B10021FE222846FFF76EFF0F20EF2111
:1017E000EF22FFF769FF0420FE21FE22FFF764FFCE
:1017F000FFF76EFE01464FF60070FA69C0F2003046
:101800000023FFF701FFB8F1000F01D000F004F84A
:101810003046BDE8F081000080B540F60010C2F20D
:101820000040017809B1012080BD01210170FFF75E
:101830004FFE01464FF60170C0F200300022002337
:10184000FFF7E2FE012080BD41F20400CEF200006D
:10185000006870470000000040F20C00C2F2004037
:1018600000687047000000004EF6FC50CEF2000009
:10187000016841F08071016041F200010120CEF267
:1018800000010A6842F001020A607047000000008F
:1018900070B50A68002A024600681CD020F4F8409F
:1018A00001F1080CD1E9073618434B6A304301F1C6
:1018B0000C0E1843106052F8040F47F6FF7320EA2D
:1018C00003054E6801F1100001F1140301F1180441
:1018D00045EA060113E00E1D47F6FF73984301F138
:1018E000140C78CE034301F1180E1C4301F11C00C7
:1018F000254301F1200301F1240445EA0601DCF847
:101900000060DEF800503143006829431B6808433B
:10191000246840EA030100202143116070BD0000EB
:101920000246406943F6FE7320EA0303002043EABF
:10193000410151617047000010B5024600696FF324
:1019400015006FF01F04D1E900ECD1E9023140EA43
:101950000E0004EB431340EA0C000343002043EA6B
:101960004121116110BD00002DE9F043002A02461B
:1019700052F8083F2ED040F6FF724FF20006CFF625
:101980000F72CFF6FF761A40CB684F6906EB033330
:101990000026CFF6F0761A4306EB07573A438260EB
:1019A00050F80C2F8E68D1E900375D1E6FF00F03E1
:1019B00003EB071C6FF0FF030C6903EB062E0023FB
:1019C00002F07042CFF6FF7303EB044345EA0204D2
:1019D000024624E001F1080903F07048D1E900341F
:1019E00099E861026FF00F07013B07EB04146FF0F9
:1019F000FF0707EB00204FF20007CFF6FF7743EA1F
:101A0000080307EB053C00270025CFF6FF77CFF64C
:101A1000F0751C4307EB064E044305EB0953886938
:101A200044EA0C01471E41EA0E0040EA030100208F
:101A300041EA07611160BDE8F0830000000000008A
:101A4000F0B583B040F2140446F6FE05C2F200443D
:101A5000C0F60005002100912078ADF80810019132
:101A60000A2200EB400005EB4000808801308DF831
:101A70000100010A8DF800106946BA2000F048F80C
:101A8000002825D420789DF802409DF804600322A8
:101A90009DF8057000EB400005EB40009DF80350F9
:101AA000808806308DF80100010A8DF80010694623
:101AB000BA2000F02DF800280AD49DF8020046EA6A
:101AC000072244EA052100F0030302A0FEF7DEFC32
:101AD00003B0F0BD3C3C2D4754502D494E464F2D90
:101AE0003E3E20585F4D4158203D2025642C205912
:101AF0005F4D4158203D2025642C205452494747D2
:101B00004552203D203078253032780A0000000010
:101B10002DE9F04186B00D46A2F1020800246F467F
:101B200002264FF40033CDF802308DF80000029108
:101B30000121ADF80E108DF80C00A81CADF8108036
:101B4000059000BF0221384603F042F9022804D074
:101B50000134052CF6D105240646052C0AD3288825
:101B600042463346000401BA46F29B70C0F60000BC
:101B7000FEF78CFC304606B0BDE8F08100000000A6
:101B8000F0B581B040F2140046F6FE01C2F200400A
:101B9000C0F6000101240DF10105007810A600EB4C
:101BA000400001EB400080888DF80200010A8DF8AA
:101BB000011000208DF80300BA2003222946FFF708
:101BC000A7FF07460006002806DC30462146FEF740
:101BD0005DFC0134062CEFD178B201B0F0BD00BF3E
:101BE0003C3C2D4754502D4552524F522D3E3E20E5
:101BF00047545020693263207465737420666169AC
:101C00006C65642074696D652025642E0A000000EF
:101C1000F0B583B0044600276E4601254FF44031ED
:101C2000CDF80210BA218DF8001002900121304643
:101C300003F0CEF8012804D00137052FF6D105278F
:101C40000546052F0AD3208801222B46000401BA3D
:101C500046F2EB70C0F60000FEF718FC284603B011
:101C6000F0BD00000000000080B502F051FF80BD13
:101C700010B503F0A1F8FFF783FFB0F1FF3F0DDDD2
:101C800048F2A060C0F20100FFF7D2FB00F024F898
:101C900002F066FFFFF7D4FE002010BD044602A04C
:101CA000FEF754FD204610BD3C3C2D4754502D45B9
:101CB00052524F522D3E3E2049324320636F6D6D8C
:101CC000756E69636174696F6E204552524F52217F
:101CD000000000000000000070B586B040F214065D
:101CE0000120C2F2004604A90822307000200590AD
:101CF00044F281000490BA20FFF70AFF0446B0F1D5
:101D0000FF3F28DD9DF81430A3F1310007284DD89E
:101D1000DFE800F0044C4C4C604C25839DF8121019
:101D2000392940F0AB809DF81300312840F0A6809F
:101D30009DF817003921009046F63C009DF816C02A
:101D4000C0F6000031223123CDF804C0FEF79EFB1F
:101D500001203070D5E084A0FEF7F8FCD1E09DF8BA
:101D600017009DF812109DF813209DF815309DF86E
:101D70001650CDE9003064A037230295FEF786FBAC
:101D80009DF81200392840F0BC809DF813003128DE
:101D900004BF9DF81400372840F0B3809DF815006B
:101DA000532840F0AE8003203070AAE09DF8170061
:101DB0009DF812109DF815609DF81320CDE9006084
:101DC00046F6C7009DF81650C0F600000295FEF7D3
:101DD0005DFB96E09DF81210362964D039297ED13A
:101DE0009DF8130031285CD19DF81500372858D193
:101DF0009DF817003721CDE9001046F669009DF8DF
:101E000016C0C0F60000392131223523CDF808C0B4
:101E1000FEF73CFB0020307073E09DF8121035296E
:101E200019D19DF81300362815D19DF815003828D2
:101E300011D19DF8170038219DF816C03622CDE942
:101E400000103DA035213823CDF808C0FEF71EFB59
:101E50000220307055E09DF815009DF813209DF884
:101E60001750CDE9000546F6C7009DF816C0C0F62C
:101E70000000CDF808C0FEF709FB42E09DF8150010
:101E80009DF813209DF81750CDE9000546F6C700D0
:101E90009DF816C0C0F60000CDF808C0FEF7F6FAAF
:101EA0002FE036291BD1352B19D19DF8130031288D
:101EB00015D19DF8150031229DF817103523CDE975
:101EC000000146F698009DF816C0C0F600003621C5
:101ED000CDF808C0FEF7DAFA0420307011E09DF862
:101EE00015009DF813209DF81750CDE9000546F622
:101EF000C7009DF816C0C0F60000CDF808C0FEF778
:101F0000C5FA204606B070BD3C3C2D4754502D49C3
:101F10004E464F2D3E3E204943352056657273692B
:101F20006F6E3A2025632563256325635F25303274
:101F300078253032780A00003C3C2D4754502D491A
:101F40004E464F2D3E3E20494334205665727369FC
:101F50006F6E3A2025632563256325635F25303244
:101F600078253032780A00003C3C2D4754502D45EE
:101F700052524F522D3E3E204754502072656164AC
:101F80002076657273696F6E206661696C656400A6
:101F900080B500F031F880BD80B50A46014602A048
:101FA000FEF774FA80BD00BF746F756368646F7765
:101FB0006E20783D256420793D25640D0A000000DF
:101FC00080B502A0FEF7C2FB80BD00BF746F7563D1
:101FD0006875700D0000000080B504F0B1FA80BD96
:101FE00080B540F60010C2F20040043004F09CFAC4
:101FF00080BD0000000000002DE9F04F97B00DF10A
:102000002C0900208DF85A002C21484644F68164A2
:10201000ADF85840FEF7F5FBBA200C224946ADF862
:102020002C40FFF775FDB0F1FF3F61DD9DF82E00FC
:10203000002800F09B8041B2B1F1FF3F00F3908097
:1020400000F00F0BBBF1050F00F28A80BBF1020F0D
:102050001AD301AD28212846FEF7D3FB6FF0070104
:1020600045F6810001EBCB066FF00501ADF80400E9
:1020700001EBCB02BA202946FFF74AFD09F10C001B
:10208000A91C3246FEF778FB40F2A21040F29D1ADE
:10209000C2F20040C2F2004A0088584532D9ABF182
:1020A000010509F10304002608E000BF40F2A21078
:1020B0000136C2F200400088864223D2BBF1000FF5
:1020C000F4D000274FF0000805E000BF08F1010838
:1020D0000137D845EAD214F837001AF8061000F094
:1020E0000F008142E2D0BD42F0DCFFF769FFEDE76F
:1020F000014646F26B70C0F60000FEF7C7F917B054
:10210000BDE8F08FBBF1000F12D0A9F10804AAF1CD
:1021100001055E46E07AE18900F00F0005F8010F45
:10212000A089FFF739FF013E04F10804F2D111E064
:1021300040F2A210C2F20040008858B1002400BF53
:10214000FFF73EFF40F2A2100134C2F200400088C7
:102150008442F5D340F2A210C2F20040A0F800B0D1
:1021600016A8FFF755FDB0F1FF3F02DD17B0BDE83F
:10217000F08F03A0FEF7EAFA17B0BDE8F08F00BFBA
:102180003C3C2D4754502D494E464F2D3E3E204954
:10219000324320777269746520656E645F636D6495
:1021A000206572726F722100B0B51F233BB1013BF5
:1021B00003F01F0421FA04F4E407F7D001E04FF024
:1021C000FF334FEAF205032D11D84FF0000C4FF00A
:1021D000010EDFE805F02002142C4FF0000E4FF046
:1021E000000C0F2B88BF4FF0010C102B28E04FF094
:1021F000010C4FF0000EBEF1000F16D00EE04FF0B4
:10220000000E4FF0000C072B88BF4FF0010C082B7D
:1022100038BF4FF0010EBEF1000F06D000684161DB
:10222000816821F01801114381606046B0BD4FF014
:10223000000E4FF0000C062B88BF4FF0010C072B4F
:1022400038BF4FF0010EBEF1000FEED0E6E7000000
:1022500010B5A8B10446407F20B900202077204661
:1022600000F032F802206077207958B1D4E90212E8
:102270002046FFF799FF00281CBF012010BD0BE08E
:10228000012010BD206841F6B751C0F2C141416143
:10229000816821F018018160607908B1206901E04E
:1022A0004FF0FF302168D4E905230861886820F0E9
:1022B000600010438860886820F0800018438860C0
:1022C00001206077002010BD81B044F2E041006839
:1022D000C5F6020101F5E462904201D001B07047F9
:1022E000086840F400200860086800F400200090AE
:1022F000009801B070470000F0B590F86020012A06
:102300004FF0020257D0C1EBC103012480F86040B6
:1023100000EB830380F8612003F1340ED3E90B2531
:102320009EE8105042EA0546A2F109052706022D53
:1023300046EA0C5603F1280C38BF04F07F4746EA02
:102340004E56002946EA07011BD04FF6F07E0B2AB5
:10235000C0F2CC0E04D11A6CAEF5402E41EA824197
:102360000268012DD46904EA0E0741EA0701D16130
:10237000DCF80010116118D8596B21F07F4111620F
:1023800013E002684FF6F076C0F2CC06012D576AD2
:1023900007EA060741EA07015162DCF80010916183
:1023A00003D8596B21F07F4191620022012180F80E
:1023B000611080F860201046F0BD000000000000B1
:1023C000D8B310B5044690F8610028B9002084F80D
:1023D0006000204600F034F8022084F8610094E8A0
:1023E00003404FF6BF72D4F80CC00368CFF6F87202
:1023F0001A40E369114340F2071219430160416B2F
:102400009143A26941EA0E0111434163016C4FF609
:10241000FF72914341EA0C010164416B226921F48E
:102420004011636941EA025141EA4351416300208E
:102430006066012184F8611010BD01207047000022
:1024400081B041F200010068C5F20021884201D04C
:1024500001B0704744F2D440C5F60200016841F073
:1024600010010160006800F010000090009801B0B9
:1024700070470000000000002DE9F043B5B040F2C5
:102480009C100025C2F200403495339501783095B8
:10249000CDE9315500296ED101AC01210170BC217B
:1024A0002046FEF7AEF94FF080700190204612955D
:1024B00000F08AFF08B1FEF7EBFF44F2D44040F68B
:1024C0000004C5F60200C5F6020430AD4FF0020864
:1024D00001684FF0000941F480510160006829460D
:1024E00000F48050009000984FF68370309004F50F
:1024F0000060CDF8C4800326CDF8C8900C27339631
:10250000349700F04DF830A948F23710CDE9336721
:1025100081E8010304F58050294600F041F830A914
:102520004CF20370CDE9336781E8010304F5806064
:10253000294600F035F830A94FF63F00CDE9336762
:1025400081E8010304F54060294600F029F830A82D
:102550002946CDE9336780E88003204600F020F863
:1025600030A92020CDE9336781E8010304F5A050AC
:10257000294600F015F835B0BDE8F08300000000F2
:10258000704700000000000080B58821C5F60001FA
:102590000A68024208BF80BD0860FFF7F1FF80BDF6
:1025A0002DE9F04F83B00C68002C00F0C68000F1DC
:1025B000264242F2004702F1FF72C5F602074FEAD7
:1025C000B22201920A22B84208BF09220025002740
:1025D0004FF0010A009209E00C68043734FA0AF25D
:1025E0000AF1010A05F1020500F0A780AAF101092C
:1025F000012202FA09FE14EA0E08EDD0D1F804B067
:102600000BF00304A4F1010CBCF1010F11D803225B
:102610008668AA40CB6826EA0202AB401A43826071
:10262000CBF30013426822EA0E0203FA09F31A43BD
:102630004260032C1ED00323C268AB40022C22EA66
:1026400003028B6803FA05F342EA0302C26011D168
:102650006FF0030207F01C0602EA59020F2302443E
:1026600003FA06F4D2F820C00B692CEA0404B34044
:102670002343136203230268AB404E689A4306F07B
:102680000303AB4016F4403F42EA03020260A3D0CA
:1026900044F2F44340F2084EC5F60203C5F6000EBC
:1026A0001A6842F002021A601A6807F00C0302F07E
:1026B00002020292029A29F00302019C009E092C58
:1026C00038BF26460F2452F80EC09C402CEA040462
:1026D00006FA03F34FF0B04C234342F80E30DCF817
:1026E00000204B6842EA0806DC0258BF22EA0806CE
:1026F0009C02CCF8006040F2040CC5F6000CDCF83B
:10270000002042EA080658BF22EA08069C03CCF8DB
:102710000060DCF8802042EA080658BF22EA08067A
:10272000DB03CCF88060DCF87C2042EA080658BF66
:1027300022EA0806CCF87C604EE703B0BDE8F08FD3
:10274000426902EA0103914341EA03418161704712
:10275000002A08BF090481617047000000000000E2
:1027600041F20000C5F600400068000C7047000010
:1027700041F204004EF24D51CEF20000C0F21101C0
:102780000068C00AA0FB010188094FF47A71484330
:10279000704700000000000090F84120202A03D17B
:1027A00090F84020012A01D102207047242280F8AD
:1027B00041200268136823F001031360136823F4B7
:1027C00080531360136819431160116841F00101CF
:1027D0001160202180F84110002180F84010084647
:1027E000704700000000000090F84120202A03D12B
:1027F00090F84020012A01D102207047242280F85D
:1028000041200268136823F001031360136823F466
:10281000706343EA01211160116841F00101116008
:10282000202180F84110002180F8401008467047B0
:1028300000284CD010B5044690F8410028B900207B
:1028400084F84000204600F08FF9242084F84100ED
:1028500094E80310E36821F070610268012B22F014
:102860000102026001614FF40442816808BF4FF425
:102870000042022B21F4004181604CEA0201816098
:1028800002D14FF400614160416804F1100C41F045
:10289000007141F400414160C16821F40041C16010
:1028A0009CE80E10114341EA0321C160216A41EA0C
:1028B0000C010160016841F00101016000206064C9
:1028C000202184F84110206384F8420010BD0120CB
:1028D00070470000000000002DE9F04381B004467D
:1028E00090F84100202805D194F84000012803D138
:1028F000022713E0022711E01D46164688460127ED
:1029000084F84070FFF734FF81464FF40041012204
:1029100019230090204602F097FA18B1384601B00A
:10292000BDE8F083222084F84100102084F84200A2
:1029300000206064666265856063608DB0F5807FAD
:1029400042F20040C8F2000005D3FF212185FF229A
:102950004FF0807304E0618D4FF000732185CAB29F
:1029600000902046414602F057FA608D089FC8B398
:102970000025FF260BE0608D4FF000732085C2B26A
:1029800020464146009502F047FA608D50B320463C
:1029900039464A4602F098FA60BB2068616A406A8C
:1029A0000870218D606A0130606201392185608D77
:1029B0000904A0F101006085608DE6D10028E4D013
:1029C0008021002220463B46CDF8009002F03CFAE0
:1029D00020BB608DB0F5807FCDD32685FF224FF0E0
:1029E0008073CDE7204639464A4602F0B9FA18B15D
:1029F000012793E7012791E7206820214EF6000385
:102A00000027C161CFF6006342681A40426084F833
:102A1000411084F8427084F840707FE701277DE719
:102A20002DE9F04381B0044690F84100202805D1FB
:102A300094F84000012803D1022713E0022711E097
:102A40001D4616468846012784F84070FFF790FE21
:102A500081464FF40041012219230090204602F0E4
:102A6000F3F918B1384601B0BDE8F083212084F8AD
:102A70004100102084F84200002060646662658591
:102A80006063608DB0F5807F42F20000C8F2000004
:102A900005D3FF212185FF224FF0807304E0618D73
:102AA0004FF000732185CAB200902046414602F0E3
:102AB000B3F9608D089FB8B30025FF260BE0608D49
:102AC0004FF000732085C2B220464146009502F0C7
:102AD000A3F9608D40B3204639464A4602F068FAB1
:102AE00050BB606A216810F8012B8A626062608DB9
:102AF00001386085208D411E2185608D0904E8D153
:102B00000028E6D08021002220463B46CDF80090E8
:102B100002F09AF920BB608DB0F5807FCFD3268577
:102B2000FF224FF08073CFE7204639464A4602F035
:102B300017FA18B1012795E7012793E720682021AC
:102B40004EF600030027C161CFF6006342681A40C9
:102B5000426084F8411084F8427084F8407081E744
:102B600001277FE700000000B0B5B6B0044602A818
:102B7000BC210025CDE93455CDE932553195FDF71D
:102B800040FE45F200412068C4F20001884201D0B5
:102B900036B0B0BD0820029002A8229500F014FCC7
:102BA00008B1FEF775FC44F2E04431A9C5F6020411
:102BB000206840F002002060206800F002000190D0
:102BC0000198C0203190122032900020CDE93300CE
:102BD0000420359040F20040C5F60200FFF7E0FC0B
:102BE000A06840F40010A060A06800F400100190FC
:102BF000019836B0B0BD000040F2150040F630112B
:102C0000C2F20040C2F2004100780A681044086035
:102C1000704700000000000080B5032000F09CF920
:102C200001F0FEF944F2184146F20373C5F60201C1
:102C3000C0F600030A68096801F00F01C2F303221D
:102C4000595C9A5C01F01F0102F01F02D04040F273
:102C50001002C2F2004220FA01F1116040F20C01B0
:102C6000C2F2004108600F2000F00AF800281CBFE3
:102C7000012080BD00F048F9002080BD0000000068
:102C80004EF6FC50CEF20000016841F08071016008
:102C900041F200010020CEF20001486000200A68E5
:102CA00042F001020A6070472DE9F041044690F8B5
:102CB000A00001284FF0020008BFBDE8F0813423D6
:102CC0004FF0010884F8A08084F8A10002FB0340C3
:102CD000D1E900CED1E90267D1E90435C0E9123566
:102CE000C0E91067C0E90ECED1E906CED1E908658A
:102CF000D1E90A37C0E91837C0E91665C0E914CE32
:102D00000B6B8366204602F0BBF92068C0F8248074
:102D1000002084F8A18084F8A000BDE8F0810000C4
:102D2000002869D010B5044690F8A10028B9002009
:102D300084F8A000204600F063F8022084F8A10087
:102D4000D4E9000CD4E90223816921F0704181614A
:102D500042EA0C01226919431143826911438161DE
:102D60004FF600028168CFF2000211408160D4E981
:102D7000051343EA0141836819438160C16811402A
:102D8000C160D4E9071343EA0141C3681943C16034
:102D9000016911400161D4E9091343EA0141036962
:102DA00019430161416911404161D4E90B1242EAC2
:102DB000014142691143416194F8351094F836207D
:102DC000C36A03F07F43C362120494F8343042EACA
:102DD0000121C26A19441143C162416B41F00601ED
:102DE0004163816941F0010181610020C4F8A400C0
:102DF000012184F8A11010BD0120704700000000DF
:102E00002DE9F041B6B0044602A8BC210025CDE969
:102E10003455CDE932553195FDF7F3FC41F200010F
:102E20002068C5F20001884202D036B0BDE8F081CA
:102E30004FF00050029005200B9032200C900A2099
:102E40000F904FF400604FF00208CDE9100502A882
:102E50001295CDE90D8800F0B7FA08B1FEF718FB1E
:102E600044F2E04042F20004C5F60200C5F6020456
:102E700031AD002741680E2641F0080141604168EC
:102E800001F0080101910199016841F4806101603C
:102E9000016801F4806101910199016841F40071B8
:102EA0000160016801F4007101910199016841F428
:102EB000807101600068294600F4807001900198DB
:102EC000FF20CDE9310804F500603596CDE9337770
:102ED000FFF766FB4FF6FF702946CDE9310804F590
:102EE00080603596CDE93377FFF75AFB4FF4704099
:102EF0002946CDE9310820463596CDE93377FFF7ED
:102F00004FFB36B0BDE8F08181B044F2F440C5F625
:102F10000200016841F002010160006800F0020057
:102F20000090009801B0704780B503F045FA80BD6D
:102F300080B503F055FA80BD70B514460D460646BF
:102F400003F05EFA2946224602F0BEFB01463046F7
:102F500003F05EFA70BD000080B503F06DFA80BD2D
:102F6000B0B544F60C05C5F602052968490729687D
:102F700005D401F00701081A18BF0120B0BD21F0E7
:102F8000070108432860FFF7F3FB044655F8080CD7
:102F9000800407D4FFF7ECFB001BB0F57A7FF5D96E
:102FA0000120B0BD0020B0BD2DE9F04182B0044643
:102FB000FFF7DEFB24B3054694F8410038B92046FC
:102FC00000F04EF841F28831204600F0BDF820684C
:102FD0006FF0FF06A1684FF00008A36C026822F4AE
:102FE000706206EB01211143016020210022009351
:102FF00020462B4602F084FB30B102B0BDE8F081E0
:10300000012002B0BDE8F081D4E900124FF62F771D
:10301000D4E903350E68C0F2FF0737403B43E76948
:1030200043EA0262236A3A431A430A604FF6FE03F8
:103030004A68CFF6E0731A4063691A43A36942EA0B
:1030400005421A434A600A6842F001020A60C4F865
:103050004480012184F8411002B0BDE8F0810000F5
:103060002DE9F041B6B0044602A8BC210025CDE907
:103070003455CDE932553195FDF7C3FB45F20001DA
:103080002068C5F20021884202D036B0BDE8F08148
:103090004FF00070029002A8149500F095F908B165
:1030A000FEF7F6F944F2E04041F20044C5F60200B2
:1030B000C5F6020431AD022650F80C1C002741F47D
:1030C000804140F80C1C50F80C1C4FF00A0801F429
:1030D000804101910199016841F04001016001685E
:1030E00001F0400101910199016841F02001016066
:1030F0000068294600F0200001900198402031909E
:1031000004F580603296CDE93377CDF8D480FFF7AF
:1031100047FA31A94FF498603497C1C1092035901E
:1031200020462946FFF73CFA31A94FF44070CDE91B
:103130003478C1C120462946FFF732FA36B0BDE8DF
:10314000F081000000000000816470470000000072
:1031500080B500F015FF44F2204146F20372C5F637
:103160000201C0F600020968C1F30211515C01F0CE
:103170001F01C84080BD000080B544F2384EC5F63E
:10318000020E5EF8103C5EF8101CC1F3053C5EF8C0
:103190000C1CBCF1000FDEF8042014D0C1F30011A8
:1031A000C2F3CC02514300EE101A03F003010229CE
:1031B000B8EE400A0CD071B95EF8381C89060DD4FF
:1031C0009FED341A18E000218160C0E9001180BD34
:1031D0009FED2F1A10E09FED2D1A0DE05EF8381CC0
:1031E00049F20002C0F2D032C1F3C10122FA01F16A
:1031F00001EE101AB8EE411ADEF800109FED263AE3
:103200006FF35F2102EE101ADEF80010C1F34621C1
:10321000B8EE422A00EE032A00EE10CAB7EE003ADA
:10322000B8EE400A81EE000A32EE031A02EE101ADE
:10323000B8EE422A20EE010A32EE031A80EE011A9D
:10324000BCEEC11A80ED001ADEF80010C1F3064191
:1032500001EE101AB8EE411A31EE031A80EE011A8F
:10326000BCEEC11A80ED011ADEF80010C1F3066150
:1032700001EE101AB8EE411A31EE031A80EE010A7F
:10328000BCEEC00A10EE101A816080BD0024744AA2
:1032900020BCBE4B0024744C00000039000000002C
:1032A00080B544F2404EC5F6020E5EF8183C5EF85A
:1032B000181CC1F3055C5EF8141CBCF1000FDEF8AD
:1032C000042014D0C1F30021C2F3CC02514300EE1C
:1032D000101A03F003010229B8EE400A0CD071B9AC
:1032E0005EF8401C89060DD49FED341A18E00021C9
:1032F0008160C0E9001180BD9FED2F1A10E09FEDA5
:103300002D1A0DE05EF8401C49F20002C0F2D032E6
:10331000C1F3C10122FA01F101EE101AB8EE411A0F
:10332000DEF800109FED263A6FF35F2102EE101ACF
:10333000DEF80010C1F34621B8EE422A00EE032A5F
:1033400000EE10CAB7EE003AB8EE400A81EE000A6D
:1033500032EE031A02EE101AB8EE422A20EE010AEB
:1033600032EE031A80EE011ABCEEC11A80ED001A8B
:10337000DEF80010C1F3064101EE101AB8EE411A52
:1033800031EE031A80EE011ABCEEC11A80ED011A6B
:10339000DEF80010C1F3066101EE101AB8EE411A12
:1033A00031EE031A80EE010ABCEEC00A10EE101ACC
:1033B000816080BD0024744A20BCBE4B0024744C44
:1033C00000000039000000002DE9F04381B0044600
:1033D000C07844F22C490007C5F6020901D4002642
:1033E0002DE0606E4FEA305003280DD80026DFE84C
:1033F00000F0020E1613D9F80000002640F4003049
:10340000C9F800004EB912E0012636B90FE0201DC0
:10341000022102F0ADF906464EB1B04611E004F1CA
:103420002400022102F034FA0646002EF5D1D9F824
:103430002400616E20F440100843C9F824004FF0C6
:1034400000086078C0072FD0606D042807D8DFE837
:1034500000F00A131B030300F6B1B04624E0012676
:10346000002EFAD118E0D9F8000040F40030C9F875
:103470000000002EF1D10FE0201D002102F078F9AC
:103480000646002EE9D107E004F12400002102F0F5
:10349000FFF90646002EE0D1D9F82400616D20F036
:1034A00007000843C9F824006078800731D5A06D73
:1034B0004FEAB010042807D8DFE800F00A131B0316
:1034C0000300F6B1B04624E00126002EFAD118E040
:1034D000D9F8000040F40030C9F80000002EF1D106
:1034E0000FE0201D002102F043F90646002EE9D12D
:1034F00007E004F12400002102F0CAF90646002E7C
:10350000E0D1D9F82400A16D20F4E0700843C9F897
:1035100024006078400733D5D4F8A4004FEA7050F7
:10352000042807D8DFE800F00A131B030300F6B1F4
:10353000B04625E00126002EFAD118E0D9F80000A7
:1035400040F40030C9F80000002EF1D10FE0201D3A
:10355000002102F00DF90646002EE9D107E004F142
:103560002400002102F094F90646002EE0D1D9F89B
:103570002C00D4F8A41020F460000843C9F82C00F3
:103580006078000733D5D4F8A8004FEA30600428EB
:1035900007D8DFE800F00A131B030300F6B1B046BA
:1035A00025E00126002EFAD118E0D9F8000040F4F9
:1035B0000030C9F80000002EF1D10FE0201D0021DD
:1035C00002F0D6F80646002EE9D107E004F1240007
:1035D000002102F05DF90646002EE0D1D9F82C005A
:1035E000D4F8A81020F0E0600843C9F82C00E07877
:1035F000800727D5A06C4FEA3010032806D8DFE8F3
:1036000000F002091202AEB1B0461BE00126002E06
:10361000FAD10FE0D9F8000040F40030C9F80000FA
:10362000002EF1D106E0201D022102F0A1F806468D
:10363000002EE9D1D9F82000A16C20F03000084319
:10364000C9F820006078C00631D5E06D4FEA30300F
:10365000042807D8DFE800F00A131B030300F6B1C3
:10366000B04624E00126002EFAD118E0D9F8000077
:1036700040F40030C9F80000002EF1D10FE0201D09
:10368000002102F075F80646002EE9D107E004F1AA
:103690002400002102F0FCF80646002EE0D1D9F803
:1036A0002400E16D20F4E0400843C9F8240060786C
:1036B000800625D5206E4FEA3040052807D8DFE880
:1036C00000F0030A0F03030396B1B04618E0012689
:1036D000002EFAD10CE0201D012102F049F804E08F
:1036E00004F12400012102F0D3F80646002EECD1AB
:1036F000D9F82400216E20F4E0200843C9F8240002
:103700006078400627D5D4F8AC004FEA3070052821
:1037100007D8DFE800F0030A0F03030396B1B046B1
:1037200019E00126002EFAD10CE0201D012102F043
:103730001FF804E004F12400012102F0A9F8064674
:10374000002EECD1D9F82C00D4F8AC1020F0E040D9
:103750000843C9F82C00607800061FD5E06ED0B190
:10376000B0F1005F12D0B0F1805F24D1D9F8000031
:1037700040F40030C9F800007EB9D9F82400E16EA9
:1037800020F040500843C9F8240007E0201D012123
:1037900001F0EEFF0646002EEFD0B046E078C007FD
:1037A00029D0606C03280AD8DFE800F0020D160269
:1037B000CEB1B0461FE00126002EEED1DDE7012696
:1037C000002EF6D10FE0D9F8000040F40030C9F81F
:1037D0000000002EEDD106E0201D022101F0C8FFFF
:1037E0000646002EE5D1D9F82000616C20F00300D8
:1037F0000843C9F82000A078400643D5D9F8D4037F
:1038000040F48070C9F8D403FEF7B2FF074600BF4A
:10381000D9F8D403C00505D4FEF7AAFFC01B65285C
:10382000F6D303266EBBD9F84410D4F8B00041405B
:1038300011F4407F11D0D9F84410D9F8442042F453
:103840008032C9F84420D9F8442021F4407122F490
:103850008032C9F84420C9F84410B0F5807F0FD1F8
:10386000FEF786FF074641F2893500BFD9F84400CC
:10387000800705D4FEF77CFFC01BA842F6D30326C1
:1038800086B1B0462078C00741D0A06F4FEAF00063
:10389000052823D8DFE800F003262B03030376B3C3
:1038A000B04634E04FF6CF73D4F8B00059F81C2C72
:1038B000C0F2FF0300F4407122F47C5203EA1013BB
:1038C000B1F5407F08BF1A436FF31F3049F81C2C35
:1038D000D9F844100843C9F84400D3E70126002E64
:1038E000DED10CE0201D012101F042FF04E004F1D3
:1038F0002400012101F0CCFF0646002ED0D1D9F8DA
:103900002800A16F20F038000843C9F8280020786B
:10391000800723D5606F052807D8DFE800F0030A89
:103920000F03030396B1B04618E00126002EFAD12A
:103930000CE0201D012101F01BFF04E004F1240034
:10394000012101F0A5FF0646002EECD1D9F8280090
:10395000616F20F007000843C9F82800207840076D
:1039600025D5D4F89000052807D8DFE800F0030A31
:103970000F03030396B1B04619E00126002EFAD1D9
:103980000CE0201D012101F0F3FE04E004F124000D
:10399000012101F07DFF0646002EECD1D9F82C0064
:1039A000D4F8901020F007000843C9F82C002078C4
:1039B000800627D5D4F88C004FEA3070052807D848
:1039C000DFE800F0030A0F03030396B1B04619E0E5
:1039D0000126002EFAD10CE0201D002101F0C8FEC6
:1039E00004E004F12400022101F052FF0646002EFB
:1039F000ECD1D9F82800D4F88C1020F0E04008432E
:103A0000C9F828002078400627D5D4F898004FEA56
:103A1000B020052807D8DFE800F0030A0F030303EE
:103A200096B1B04619E00126002EFAD10CE0201D17
:103A3000002101F09DFE04E004F12400022101F0C8
:103A400027FF0646002EECD1D9F82C00D4F89810A8
:103A500020F4E0500843C9F82C002078000627D550
:103A6000D4F89C004FEA7030052807D8DFE800F052
:103A7000030A0F03030396B1B04619E00126002E96
:103A8000FAD10CE0201D002101F072FE04E004F1E7
:103A90002400022101F0FCFE0646002EECD1D9F8EC
:103AA0002C00D4F89C1020F460400843C9F82C0086
:103AB0002078000716D5D4F88000B0F5805F08D1D3
:103AC00004F12400022101F0E3FE002818BF4FF0AA
:103AD0000108D9F82800D4F8801020F44050084399
:103AE000C9F828002078C00616D5D4F89400B0F59F
:103AF000807F08D104F12400022101F0C9FE0028D2
:103B000018BF4FF00108D9F82C00D4F8941020F415
:103B100040700843C9F82C00A078000721D5D4F8DC
:103B2000A000B0F5003F19D0B0F5803F10D0C0BB69
:103B3000201D002101F01CFE06468EB9D9F82C008C
:103B4000D4F8A01020F440300843C9F82C0008E055
:103B500004F12400022101F09BFE0646002EEDD068
:103B6000B046A078400729D5D4F88400B0F5401FAE
:103B700021D0B0F5001F18D0B0F5801F40F0C180F3
:103B8000D9F8000040F40030C9F80000AEB9D9F807
:103B90002800D4F8841020F440100843C9F8280005
:103BA0000CE00126002EDBD1C8E704F1240001213E
:103BB00001F06EFE0646002EE9D0B046A078C007A0
:103BC0001FD0E06CB0F5803F10D0B0B9D9F800003C
:103BD00040F40030C9F8000096B9D9F82000E16C33
:103BE00020F480300843C9F820000AE0201D02219B
:103BF00001F0BEFD06461EB9EFE70126002EECD00F
:103C0000B046E078800608D504F12400022101F0D6
:103C10003FFE002818BF4FF00108206881031ED422
:103C2000C10234D4C1003CD4810245D441004DD4FA
:103C3000B0F1FF3F5ADD000208D5D9F82800D4F8CA
:103C4000881020F440000843C9F82800B8F1000F9C
:103C500018BF4FF00108404601B0BDE8F083E16FA6
:103C60006FF0010202EB3122022A0AD34FEA31221D
:103C70003AB1012A4AD1D9F8002042F40032C9F8F9
:103C80000020002E45D04FF00108C102CAD5D9F856
:103C90002410226F21F000411143C9F82410C10003
:103CA000C2D559F81C1CD4F8B42021F4804111432A
:103CB00049F81C1C8102B9D5D9F82410A26E21F054
:103CC00080711143C9F824104100B1D559F81C1C6A
:103CD00021F4004149F81C1CD4F8B81059F81C2CE8
:103CE000114349F81C1CB0F1FF3FA4DCD9F82010A7
:103CF000226D21F040511143C9F820100002A5D5D2
:103D00009BE70126002E7FF458AF40E70126002EE6
:103D1000B9D1D9F8282022F440721143C9F82810EB
:103D2000C1027FF57FAFB2E72DE9F04381B00028F3
:103D300000F0F48042F200080446C5F200288946EB
:103D4000D8F8000000F00F0088420ED2D8F800002A
:103D500020F00F0040EA0900C8F80000D8F8000081
:103D600000F00F00484540F0D980206844F2184721
:103D70004107C5F602070AD521693A6802F07002C8
:103D8000914204D93A6822F0700211433960010768
:103D90000AD561697A6802F07002914204D97A68A2
:103DA00022F0700211437960C1060AD5A1697A68D0
:103DB00002F4E062914204D97A6822F4E06211438D
:103DC000796081060AD5E169BA6802F07002914211
:103DD00004D9BA6822F070021143B96081070AD58C
:103DE000E1683A6802F00F02914204D93A6822F081
:103DF0000F0211433960C0077ED1206881070AD5C0
:103E0000E1683A6802F00F02914204D23A6822F067
:103E10000F0211433960D8F8001001F00F01494535
:103E20000DD9D8F8001021F00F0141EA0901C8F8B6
:103E30000010D8F8001001F00F0149456ED141077C
:103E40000AD521693A6802F07002914204D23A68B8
:103E500022F070021143396001070AD561697A685E
:103E600002F07002914204D27A6822F0700211438B
:103E70007960C1060AD5A1697A6802F4E0629142CC
:103E800004D27A6822F4E0621143796080060AD590
:103E9000E069B96801F07001884204D2B96821F084
:103EA00070010843B86000F0BBF8396846F203724D
:103EB000C0F600023B68C1F3032103F00F03515C1D
:103EC000D25C01F01F01C84002F01F0140F2100255
:103ED00020FA01F1C2F20042116040F20C0140F2FE
:103EE0001802C2F20041C2F2004208601068FEF7F8
:103EF000C7FE01B0BDE8F083386820F47061D4E9F2
:103F00000102012841EA020139600BD003282BD0BD
:103F100002282ED157F8181C890307D4012001B0BC
:103F2000BDE8F08357F8181CC905F7D557F8081CE9
:103F300021F00701084347F8080CFEF719FC064674
:103F400041F2883557F8080C616800F03800B0EB92
:103F5000C10F3FF452AFFEF70BFC801BA842F1D912
:103F6000032001B0BDE8F08357F8181C8901D5D5AE
:103F7000DCE757F8181C4907D0D5D7E70000000048
:103F800080B500F04DF844F2184146F20373C5F6CF
:103F90000201C0F600030A68096801F00F01C2F3CC
:103FA0000322595C9A5C02F01F0220FA02F201F02F
:103FB0001F0040F2100122FA00F0C2F20041086036
:103FC00040F20C01C2F200410A6080BD0000000016
:103FD00080B5FFF7D5FF44F21C4146F20372C5F6E7
:103FE0000201C0F600020968C1F30211515C01F040
:103FF0001F01C84080BD000080B5FFF7C1FF44F23B
:104000001C4146F20372C5F60201C0F600020968BF
:10401000C1F30221515C01F01F01C84080BD0000C6
:1040200044F20041C5F602010869C0F3C20003284A
:104030000FD002282AD070BB0868800649F2000021
:10404000C0F2D03058BF70470968C1F3C101C84001
:1040500070478A6A886AC0F3051CC86ABCF1000F01
:104060004B6B1DD0C3F3CC0300F00100584302F0AA
:104070000302022A00EE100AB8EE400A12D0A2B9DA
:104080000868800614D49FED261A1EE047F640000B
:10409000C0F27D10704740F60010C0F23D0070473E
:1040A000002070479FED1D1A0FE09FED1B1A0CE0DA
:1040B000086849F20002C0F2D032C0F3C10022FA0F
:1040C00000F001EE100AB8EE411A086B9FED153AA8
:1040D0006FF35F2002EE100A086BC0F34620B8EEC3
:1040E000422A013000EE032A00EE10CAB7EE003A71
:1040F000B8EE400A81EE000A32EE031A20EE010A01
:1041000001EE100AB8EE411A80EE010ABCEEC00AB8
:1041100010EE100A704700BF0024744A20BCBE4B4A
:104120000024744C000000392DE9F04381B0F8B14F
:104130008046007844F20049C007C5F602095AD00B
:10414000D9F8100000F03801D9F82800102905D05E
:1041500018290FD100F0030002280BD1D9F8000074
:10416000800344D5D8F80400002840D101272FE06F
:10417000012735E2D8F804402CB1B4F5A02F0DD0BA
:10418000B4F5803F10D0D9F8000020F48030C9F891
:104190000000D9F8000020F4802009E0D9F80000E0
:1041A00040F48020C9F80000D9F8000040F48030C5
:1041B000C9F80000FEF7DCFA0546A4B1D9F8000002
:1041C000800314D4FEF7D4FA401B6428F6D90327E1
:1041D0000020002800F004820DE000BFFEF7C8FABE
:1041E000401B6428F3D8D9F800008003F6D40120DE
:1041F000002800F0F58198F80000800740F18480E5
:10420000D9F8100010F03801D9F828001CD018296E
:1042100008BF5FEA807017D0D8F80C00D9F80010FA
:10422000002847D021F019010843C9F80000FEF723
:104230009FFA0546D9F8000040072AD4FEF798FAFD
:10424000401B0228F6D91EE0D9F80000400704D52B
:10425000D8F80C00002800F09181D9F80000D8F8B7
:104260000C1020F019000843C9F80000FEF780FA8E
:10427000054600BFD9F8000040070AD4FEF778FAD7
:10428000401B0228F6D903270024002C00F0A88147
:104290003AE0FEF765FA41F20301884223D8D8F8E4
:1042A0001000D9F80410402821F47C3124D141F4C5
:1042B000003023E021F00100C9F80000FEF758FAB1
:1042C00005460126D9F8000010F0040086EA9004A3
:1042D00017D0FEF74DFA401B0328F3D30327002C19
:1042E00000F07E8110E0D9F80400D8F8101020F01A
:1042F000FE4040EA016001E041EA0030C9F80400F4
:104300000124002C00F06C8198F80000C00674D5E0
:10431000D9F8100000F03801D9F82800082905D094
:1043200018291CD100F00300012818D1D9F8000089
:10433000C00503D5D8F81C00802859D1FEF710FA23
:1043400041F20301884222D8D8F82000D9F804109D
:10435000202821F0F84142D141F0804041E0D8F8D6
:104360001C000028D9F8000020D040F08000C9F8D7
:104370000000FEF7FDF90546D9F80000C005DDD4C0
:10438000FEF7F6F9401B0228F6D9032731E0D9F8E9
:104390000C00D8F8201020F07C50012440EA016085
:1043A000C9F80C00002C00F01B8126E020F08000F2
:1043B000C9F80000FEF7DCF905460126D9F800002F
:1043C00010F4807086EA10240ED0FEF7D1F9401B5D
:1043D0000328F3D30327002C00F002810DE041EA0B
:1043E0008060C9F804000124002C00F0F98004E08A
:1043F00001270024002C00F0F38098F8000000074B
:104400001CD498F80000800631D498F800004007CA
:1044100045D4D8F82440002C00F0E180D9F81000F1
:1044200000F03800182840F08880012CD9F82810B6
:10443000D9F8300040F0A4800127D1E0D8F814006A
:104440000028D9F874003ED040F00100C9F874008B
:10445000FEF78EF9054600BFD9F874008007D0D466
:10446000FEF786F9401B0228F6D90327B8E0D8F8F2
:1044700018000028D9F800004BD040F48050C9F84B
:104480000000FEF775F90546D9F800008004BCD499
:10449000FEF76EF9401B0228F6D90327A0E0D9F8F1
:1044A000000440F48070C9F80004FEF761F9054685
:1044B000D9F80004C0051AD4FEF75AF9401B642845
:1044C000F6D903278CE020F00100C9F87400FEF74C
:1044D0004FF90546032700BFD9F8740080077FF520
:1044E00090AFFEF745F9401B0228F5D978E0D8F8DF
:1044F00008401CB1052C77D0012C7BD0D9F8700076
:1045000020F00100C9F87000D9F8700020F0040014
:1045100074E020F48050C9F80000FEF729F9054640
:10452000032700BFD9F8000080047FF56EAFFEF7C7
:104530001FF9401B0228F5D952E0D9F8000020F0FD
:104540008070C9F80000FEF713F9022C05464FF001
:10455000030709D1D9F80000800171D5FEF708F9E9
:10456000401B0228F6D93BE0D9F80000800136D57F
:10457000FEF7FEF8401B0228F6D931E0012783E65A
:1045800001F00302D8F828309A4240F0D380C1F3FA
:104590000511D8F82C20914240F0CE800146D8F881
:1045A00030206FF35F21013A914240F0C780C0F3A1
:1045B0004622D8F8341001398A4240F0C180C0F355
:1045C0000642D8F8381001398A4240F0BB80C0F367
:1045D0000660D8F83C100139884240F0B5800027C9
:1045E000F8B201B0BDE8F083D9F8700040F00400E3
:1045F000C9F87000D9F8700040F00100C9F87000E7
:10460000FEF7B6F8002C054641F288344FF0030758
:1046100011D000BFD9F8700080073FF5FAAEFEF761
:10462000A7F8401BA042F5D9DAE700BFFEF7A0F8D3
:10463000401BA042D4D8D9F870008007F6D4E8E631
:1046400008F12807D9F8280040F2F33188438ECFCB
:104650000843591E40EA02104FF47E426FF35F2177
:10466000C9F8280002EB47204FF4FE0280B2D8F8C8
:104670003C300844D8F8381002EB01414FF0FE42BC
:1046800001F4FE0102EB0362084402F0FE4108441B
:10469000C9F83000D9F82C004FF6F87120F001006D
:1046A000C9F82C00D9F83400D8F84820884340EAEB
:1046B000C200C9F83400D9F82C00D8F8401020F016
:1046C0000C000843C9F82C00D9F82C00D8F8441085
:1046D00020F002000843C9F82C00D9F82C0040F45F
:1046E0008030C9F82C00D9F82C0040F40030C9F80B
:1046F0002C00D9F82C0040F48020C9F82C00D9F8FF
:104700002C0040F00100C9F82C00D9F8000040F05E
:104710008070C9F80000FEF72BF804460327D9F88B
:10472000000080013FF55BAFFEF722F8001B022876
:10473000F5D955E7012753E7012751E701274FE74F
:1047400001274DE701274BE7012749E7000000005B
:1047500020B3B0B5044690F82C000D4628B90020CF
:1047600084F82D00204600F01BF8022084F82C006D
:104770002068211DFDF78CF8D4E900022946FDF7D9
:10478000F3F844F20000C5F20020016841F0004156
:104790000160012084F82C000020B0BD012070478A
:1047A00080B5FDF769FE80BDB0B5054690F82C00D8
:1047B000022801D10220B0BD95F82C000124012867
:1047C00008D1022085F82C002868FDF7A9F885F8A3
:1047D0002C4000242046B0BDB0B5044690F82C0013
:1047E0000D46052804D0022808BFB0BD01280BD112
:1047F000022084F82C0020682946FDF79DF82868DF
:10480000022803D1052002E00120B0BD012084F878
:104810002C000020B0BD000090F88010012901D1CB
:10482000022070472421C0F88410026813681168C0
:1048300023F0005321F00101116000214166136053
:104840002022C0F8842080F88010084670470000BD
:10485000B0B5044690F88000012801D10220B0BD17
:10486000012084F880002420C4F8840020680568B2
:10487000026822F001020260826822F06062114345
:104880008160204601F070F9206805602020C4F89E
:104890008400002084F88000B0BD0000000000000B
:1048A000B0B5044690F88000012801D10220B0BDC7
:1048B000012084F880002420C4F884002068056862
:1048C000026822F001020260826822F06042114315
:1048D0008160204601F048F9206805602020C4F876
:1048E0008400002084F88000B0BD000000000000BB
:1048F00010B5B0B10446D0F8840028B9002084F87F
:104900008000204600F028F82420C4F884002068A5
:10491000016821F001010160204601F0F9F9012848
:1049200001D1012010BDA06A10B1204601F048F964
:104930002068416821F490414160816821F02A019A
:104940008160016841F001010160204601F0A8F991
:1049500010BD0000000000002DE9F041B6B00021BC
:104960000446CDE93411CDE93211319102A8BC21C0
:10497000FBF747FF44F600412068C4F2000188427B
:1049800002D036B0BDE8F08104201F9002A84FF09D
:104990000208CDF80880FEF717FD08B1FCF778FD96
:1049A00044F2E0400024C5F60200C5F6020431AD31
:1049B00000278168082641F400218160816801F4A4
:1049C000002101910199016841F480710160016841
:1049D00001F4807101910199016841F001010160C8
:1049E0000068294600F00100019001984FF4007022
:1049F000CDE9310804F500503596CDE93377FDF760
:104A0000CFFD01202946CDE9310820463596CDE974
:104A10003377FDF7C5FD36B0BDE8F081000000003A
:104A2000FEE700000000000000688169890701D5E9
:104A3000002181628169C90718BF7047816941F00F
:104A40000101816170470000F0B585B044F2E0409B
:104A500040F20045C5F60200C5F602056C46022686
:104A6000816841F400118160816801F400110091B6
:104A70000099016841F002010160016801F0020142
:104A800000910099016841F002010160016801F0A4
:104A9000020100910099016841F040010160016844
:104AA00001F0400100910099016841F008010160A6
:104AB0000068214600F00800009000984020009017
:104AC00012200190002002900420049028460396B2
:104AD000FDF766FD8020009028462146FDF760FD29
:104AE0000820009005F50060214601270396CDE9D6
:104AF0000176FDF755FD4FF480502146CDE90007C2
:104B000005F5A050CDE90266FDF74AFD05B0F0BD00
:104B100080B586B044F2E040C5F60200016841F07D
:104B200040010160006801A900F040000190019877
:104B30004FF4805001900020CDE9020041F60000C2
:104B4000C5F60200FDF72CFD282001210122FEF709
:104B5000F3F92820FEF7E8F906B080BD0000000058
:104B600080B586B044F2E040C5F60200016841F02D
:104B700040010160006801A900F040000190019827
:104B80004FF4805001904FF4881002900020039061
:104B900041F60000C5F60200FDF702FD28200121C4
:104BA0000122FEF7C9F92820FEF7C2F906B080BD40
:104BB0002DE9F047044600688369DB0602D400262D
:104BC000002555E089461021C16120688169890668
:104BD00043D41646002709F101084FF0200A0025AA
:104BE00006E000BF2068816901F02001294337D128
:104BF000B8F1000FF6D0FDF7BBFDB9F1000F02D000
:104C0000801B4845EED92068416894F84220202A4C
:104C100082691DD011F480411AD112F4004117D0DD
:104C2000416841F480414160FDF7A2FD06460FE076
:104C3000FDF79EFD801B1A280AD3606C012540F009
:104C40002000606484F841A084F8427084F84070C9
:104C5000206880698006EBD5C4E7012121B905E011
:104C6000B5FA85F1490909B12021C1610125042660
:104C700020688169CA051DD44A0523D4890528D432
:104C8000ADB12046FFF7D0FE20684EF60002CFF609
:104C90000062416811404160606C304360642020D4
:104CA00084F84100002084F8420084F8400028463F
:104CB000BDE8F08746F0010601254FF48072C2611D
:104CC0004A05DBD5083601254FF48062C2618905AB
:104CD000D6D546F0020601254FF40071C161002DC2
:104CE000CFD1E4E70000000010B540F2A41445F273
:104CF0000040C2F2004443F23221C4F20000C9F283
:104D00009101C4E900010020A0600121C4E9031061
:104D1000C4E90500C4E907002046FDF789FD00212C
:104D20002046FDF739FD10BD80B582B094460A4695
:104D3000014640F2A410C2F200404FF47A7300938F
:104D40006346FDF7C9FD002002B080BD00000000F1
:104D50002DE9F04385B040F60046E946C5F6020667
:104D6000012006F540640190204649464FF48058E2
:104D7000CDF80080022703970297FDF711FC082168
:104D8000002230460025FDF7E3FC0A20FCF750FB2B
:104D9000082101223046FDF7DBFC44F62060FCF7D9
:104DA00047FB20464946CDE90085CDE90257FDF78E
:104DB000F7FB05B0BDE8F08380B5FFF745FEFFF7D0
:104DC00093FFFFF7C5FFFCF74FFF80BD0000000019
:104DD00070B5F9B1041D4D1E002600BF34F8021C49
:104DE000228814F8040CC907616803D1D2B200F01C
:104DF0000FF901E0FFF798FFB54206F1010104D079
:104E0000002804F10C040E46E8D0002818BF014623
:104E1000084670BD002070BD6FF39F2100681943E4
:104E2000DDF800C041EA0241426849F6004341EA28
:104E30000C0122EA5C52CFF6004321F000411A40F7
:104E400011434160704700002DE9F04381B0814675
:104E5000006880690840401AB0FA80F0400990422A
:104E60002BD10D4616461F46DDF820805C1C09E05C
:104E7000D9F8000080692840401BB0FA80F0400952
:104E8000B0421AD1002CF3D0FDF772FC1FB1A0EB99
:104E90000800B842ECD9D9F8440040F02000C9F825
:104EA0004400202089F84100002089F8420089F858
:104EB0004000012001B0BDE8F083002001B0BDE852
:104EC000F08300000000000070B515460E46044651
:104ED0002068806940071BD4204631462A46FFF7E8
:104EE00067FEB8B920688169890615D4FDF740FCD2
:104EF00016B1401BB042EBD9606C40F020006064FA
:104F0000202084F84100002084F84000012070BD7A
:104F1000002070BD012070BD8169490704D5218D35
:104F200000291CBF002070BD81690022C9064FF016
:104F3000000102D51022C261042262642022C261F3
:104F40004EF600064368CFF600663340436001200A
:104F500084F8412084F8421084F8401070BD0000AD
:104F600070B515460E46044620688069800619D43F
:104F7000204631462A46FFF71BFEA8B9FDF7F8FB8D
:104F800016B1401BB042EFD9606C40F02000606465
:104F9000202084F84100002084F8420084F840007A
:104FA000012070BD002070BD012070BD0000000018
:104FB000F0B581B0044600688069800725D41546A5
:104FC0000E464F1C04E000BF2068806980071CD497
:104FD000204631462A46FFF7EBFD98B9002FF3D063
:104FE000FDF7C6FB16B1401BB042EDD9606C40F036
:104FF00020006064202084F84100002084F84200F2
:1050000084F84000012001B0F0BD002001B0F0BDE7
:1050100080B582B094460A46014640F2A410C2F21E
:1050200000404FF47A7300936346FDF7F9FC0020CB
:1050300002B080BD0000000080B540F60010C2F252
:105040000040103001F070FA80BD00000000000048
:1050500080B540F60010C2F200400C3001F064FA56
:1050600080BD00000000000080B540F60010C2F2D4
:105070000040083001F058FA80BD00000000000038
:10508000F0B500680027D1E900CE00EBC212C0F6EF
:10509000FF77D1E90234C568D2F8886006F470461B
:1050A000C2F88860C6683D4005EB0E45C6F30B4666
:1050B000664401363543C2F88850C568D2F88C6022
:1050C0006FF3DF2506F47046C2F88C602C44C0688C
:1050D0006FF3DF201844013040EA0440C2F88C002E
:1050E000D2F8940020F00700C2F894000B69C2F8CF
:1050F000943091F83200072B91F831404FEA00408C
:105100008D69D2F89C604FF00006C2F89C6040EABE
:10511000042091F8307040EA056040F2077438448A
:10512000C2F89C00D2F8980020F0FF00C2F8980066
:105130004869C2F89800D2F8A00020EA0400C2F83A
:10514000A000D1E9070440EA0400C2F8A00002F17F
:105150008400D2F8AC40C2F8AC604C6AC2F8AC40F3
:1051600003D80FA252F8232000E00122C36AAEEB5D
:105170000C0703F0E023C3628B6AC96A53437A4386
:10518000073242EA0342C262026B40F2FF739A4363
:1051900002630163016841F001010160F0BD00BFDD
:1051A00004000000030000000200000002000000F4
:1051B00002000000010000000100000002000000E9
:1051C00010B550E8002F940103D3BFF32F8F0022B6
:1051D00006E002F000420A4340E8002303B1F0E792
:1051E000104610BD0000000080B540F2F01044F6FB
:1051F0000041C2F20040C5F6020101600021818039
:10520000C0E9051101210162FDF722F8002808BF5D
:1052100080BDFCF73DF980BD80B540F2142041F21D
:105220000001C2F20040C5F200210222016000210B
:105230004160C0E90221C0E91112C0E91311C0E9BF
:105240001511C165FDF7BCF808B1FCF721F940F272
:1052500014200121C2F20040FDF74EF8002808BFDB
:1052600080BDFCF715F980BD80B588B040F2BC3038
:1052700044F24011C2F20040C5F2002101224FF079
:10528000100C0160002141604023826008224361CC
:105290004FF48073C0E906314FF400638162C0E9C6
:1052A000083102210791CDE90112CDE905C101A91B
:1052B000C260C0F810C00622CDE90322FFF748FA09
:1052C00008B1FCF7E5F808B080BD00000000000060
:1052D0002DE9F04F87B044F2E0404FF00008C5F6EA
:1052E0000200CDF81880CDE90488CDE90288016874
:1052F00040F6000441F4806101600168C5F60204D3
:1053000001F4806101910199016841F00801016097
:10531000016804F5806701F00801019101990168B5
:1053200041F0100101600168002201F010010191BB
:105330000199016841F0020101600168182601F03D
:10534000020101910199016841F400710160016855
:1053500001F4007101910199016841F001010160BE
:10536000016801F0010101910199016841F0040116
:105370000160016801F0040101910199016841F0A7
:1053800040010160016801F040010191019901684B
:1053900041F480710160016801F48071019101990B
:1053A000016841F020010160016801F020010191D4
:1053B0000199016841F0800101600068182100F046
:1053C0008000019001983846FDF7C2F94FF4004182
:1053D000002220464FF4004BFDF7BAF904F5C05502
:1053E0004FF48071002228464FF48079FDF7B0F920
:1053F000029602AE384631464FF0010ACDF81480CD
:10540000CDE903A8FDF7CCF820463146CDE902BA34
:10541000CDE90488FDF7C4F84FF4805002904FF4B2
:1054200088103146CDE9030804F58050FDF7B8F83F
:1054300028463146CDE9029ACDE90488FDF7B0F857
:10544000282000210022FDF777FD2820FDF770FDC0
:1054500007B0BDE8F08F000080B540F27C2045F237
:105460000041C2F200404EF6FF42C4F20001C1F218
:10547000C002C0E90012002181600122C0E90321BD
:10548000C0E90511C0E90711FDF7D2F908B1FBF732
:10549000FFFF40F27C200021C2F20040FDF77CF9C2
:1054A00008B1FBF7F5FF40F27C200021C2F200407A
:1054B000FDF79AF9002808BF80BDFBF7E9FF80BD22
:1054C000B0B58EB001A83421FBF79BF940F2C8209B
:1054D00041F20001C2F20040C5F2000100240225A1
:1054E00001601321C0E90144C0E9034441619F21E7
:1054F0008561C1610E21016240F2BF3141624FF40A
:10550000F771816240F25F41C1624FF4FD71016346
:105510004FF6FF71818680F83640FDF701FC08B137
:10552000FBF7B6FF4FF480600890052001A9CDE994
:10553000090440F2C8200022C2F200400794CDE9DD
:105540000344CDE90144CDE90554CDE90B44CDF840
:105550003340FDF7A9FB08B1FBF79AFF0EB0B0BDD1
:1055600080B540F2703045F20001C2F20040C5F251
:105570000021016001214160042181601021C1608E
:10558000172101614FF4806141610021C0E90611DA
:105590000162FDF709FD002808BF80BDFBF778FF19
:1055A00080BD0000000000002DE9F04385B040F20E
:1055B000BC34E946C2F200444FF6FF722046494629
:1055C000002604964FF00108CDF8008010270396BE
:1055D000CDE90178FFF700F94FF47A70FBF728FF67
:1055E00002204FF6FF728DE881012046494603965E
:1055F000FFF7F2F803204FF6FF72CDE900072046CF
:1056000049460425CDE90256FFF7E6F840F222208C
:1056100004908DE8A001049803904FF6FF72204695
:105620004946FFF7D9F840F2A5212046FFF7BCF81C
:1056300005B0BDE8F083000080B540F2F03044F6DC
:105640000041C2F20040C4F200010C2201604FF49C
:10565000E13141600021C0E902110161C0E9052189
:10566000C0E90711C0E90911FFF742F908B1FBF7DA
:105670000FFF40F2F0300021C2F20040FFF710F9B6
:1056800008B1FBF705FF40F2F0300021C2F2004004
:10569000FFF7DEF808B1FBF7FBFE40F2F030C2F294
:1056A0000040FFF7B9F8002808BF80BDFBF7F0FE07
:1056B00080BD000000000000FEE7000000000000C8
:1056C000FEE700000000000000F007004FF0FF3C84
:1056D00080F00703042B28BF0423033838BF0020C1
:1056E0000CFA03F399430CFA00F301FA00F022EAF2
:1056F00003010843704700007047000000000000ED
:105700002DE9F04381B0044600688068084018BF66
:105710000120904203D1002001B0BDE8F083DDF804
:1057200020800D461646994608F1010707E000BFA4
:1057300020688068284018BF0120B042EBD0002FBD
:10574000F6D0FDF715F8B8F1000F03D0A0EB090073
:105750004045EDD9042084F84100606C40F0010020
:105760006064012001B0BDE8F0830000000000008B
:10577000F0B581B044F22C47C5F6020757F8042C67
:1057800002F00302032A02D1012001B0F0BD054658
:1057900057F82C0C0C4620F0806047F82C0CFCF7D6
:1057A000E7FF064657F82C0C000105D5FCF7E0FF93
:1057B000801B0228F6D964E057F8040CEE6895E8DF
:1057C0000E0020F47C30012C40EA0130A2F10101EE
:1057D0006FF35F214FF47E4202EB432247F8040C43
:1057E00092B24FF0FE4302EB01004FF4FE012A6932
:1057F00001EB064101F4FE0103EB0262084402F0F2
:10580000FE410844F8603868696920F0C00040EA49
:10581000010038603868A96920F0200040EA0100E2
:10582000386038684FF6F87120F010003860386939
:10583000EA6920EA01004FF4001140EAC200386131
:10584000386808BF4FF4801140F01000002C386019
:1058500008BF4FF4002138680843386057F82C0C13
:1058600040F0806047F82C0CFCF782FF044600BF34
:1058700057F82C0C000107D4FCF77AFF001B032813
:10588000F6D3032001B0F0BD002001B0F0BD000050
:10589000F0B581B044F22C47C5F6020757F8042C46
:1058A00002F00302032A02D1012001B0F0BD054637
:1058B00057F82C0C0C4620F0805047F82C0CFCF7C5
:1058C00057FF064657F82C0C800005D5FCF750FF13
:1058D000801B0228F6D964E057F8040CEE6895E8BE
:1058E0000E0020F07C70012C40EA0150A2F1010171
:1058F0006FF35F214FF47E4202EB432247F8040C22
:1059000092B24FF0FE4302EB01004FF4FE012A6910
:1059100001EB064101F4FE0103EB0262084402F0D0
:10592000FE41084478613868696920F4406040EAC3
:10593000010038603868A96920F4007040EA01006D
:10594000386038684FF6F87120F480703860B869B4
:10595000EA6920EA01004FF0807140EAC200B861B4
:10596000386808BF4FF4000140F48070002C3860A4
:1059700008BF4FF4800138680843386057F82C0C92
:1059800040F0805047F82C0CFCF7F2FE044600BFB4
:1059900057F82C0C800007D4FCF7EAFE001B032804
:1059A000F6D3032001B0F0BD002001B0F0BD00002F
:1059B000704700000000000080B5FDF71DF980BDB4
:1059C000B0B59CB044F6180409A84C21C5F60204F1
:1059D000FAF717FF02200025CDE90755CDE9055557
:1059E000CDE90355CDE90155FDF7BAFA40F22C4057
:1059F0000095C5F60000016821F001010160006812
:105A000000F001000090206840F4404020602068D1
:105A100000F440400090009820688004FCD54FF6C8
:105A200010400222CFF6FF700025215862F30101D9
:105A30002150112009904FF480300A90802010905E
:105A400010201392CDE9110205201490A020082403
:105A5000CDE9150209A81994CDE91722CDE91A5507
:105A6000FEF762FBA0B93F20019003204FF4806154
:105A7000CDE9020540200494CDE90500CDE90710E9
:105A800001A80221FEF750F9002804BF1CB0B0BDE8
:105A9000FBF7FEFC000000004EF6885042F2000CBE
:105AA000CEF20000C5F2002C016841F470010160E3
:105AB000DCF8000000F00F00062806D8DCF8000033
:105AC000072161F30300CCF8000044F200404EF6D9
:105AD0007F52C5F60200CEF6F622016841F00101C0
