:020000040800F2
:10000000301A012439040008918E0008317C000860
:10001000898E00080922000811A3000800000000D2
:100020000000000000000000000000003193000804
:10003000A922000800000000098F000879040008C8
:100040005304000853040008530400085304000834
:100050005304000853040008530400085304000824
:100060005304000853040008530400085304000814
:100070005304000853040008530400085304000804
:1000800053040008530400085304000853040008F4
:1000900053040008530400085304000853040008E4
:1000A00053040008530400085304000853040008D4
:1000B00053040008530400085304000853040008C4
:1000C00053040008530400085304000853040008B4
:1000D00053040008530400085304000853040008A4
:1000E000B122000853040008000000005304000877
:1000F0005304000853040008530400085304000884
:100100005304000853040008530400085304000873
:100110005304000853040008530400085304000863
:100120005304000853040008530400085304000853
:100130005304000853040008530400085304000843
:1001400000000000000000000000000000000000AF
:100150005304000853040008530400085304000823
:100160005304000853040008530400085304000813
:100170005304000853040008530400085304000803
:1001800053040008530400085304000853040008F3
:1001900053040008530400085304000853040008E3
:1001A00053040008530400085304000853040008D3
:1001B00053040008530400085304000853040008C3
:1001C00053040008530400085304000853040008B3
:1001D00053040008530400085304000853040008A3
:1001E0005304000853040008530400085304000893
:1001F0005304000853040008530400085304000883
:100200005304000853040008530400085304000872
:100210005304000853040008530400085304000862
:1002200053040008530400085304000800000000B1
:1002300053040008530400080000000053040008A1
:100240005304000853040008530400085304000832
:100250005304000853040008530400085304000822
:100260005304000853040008530400085304000812
:100270005304000853040008530400080000000061
:100280005304000853040008530400080000000051
:10029000000000005304000800F002F800F0BCF871
:1002A0000AA090E8000C82448344AAF10107DA45D1
:1002B00001D100F0B1F8AFF2090EBAE80F0013F067
:1002C000010F18BFFB1A43F001031847A46F0B007E
:1002D000C46F0B000A444FF0000C10F8013B13F000
:1002E000070408BF10F8014B1D1108BF10F8015B8F
:1002F000641E05D010F8016B641E01F8016BF9D182
:1003000013F0080F1EBF10F8014BAD1C0C1B09D1D8
:100310006D1E58BF01F801CBFAD505E014F8016B4A
:1003200001F8016B6D1EF9D59142D6D370470000DC
:100330000023002400250026103A28BF78C1FBD8EE
:10034000520728BF30C148BF0B6070476E2900F0CC
:10035000F582702900F02B84662912F0C2A265296B
:1003600012F0BFA2672912F0BCA2612912F0BBA251
:1003700003681B0A28BF41F08001692900F0A282AE
:10038000642900F09F82752900F09C826F2900F09B
:10039000B983782900F0F783E92900F05383E42931
:1003A00000F05083F52900F04D83EF2900F0B6836B
:1003B000F82900F0F6830368DB0928BF41F08001CB
:1003C000632901F04181732901F04681E32901F09D
:1003D0005181F32901F05681002070471FB552F07A
:1003E00073FA9DE8030001F0FDFC01F041FA0400FE
:1003F0000020002152F052FA401C606000200021D1
:1004000052F036FAE06001F045F900F0E7F91FBD5F
:1004100010B501F0A8F910BD01F0FCF91146FFF785
:10042000DDFF49F035FA01F0ADFC03B4FFF7F0FF52
:1004300003BC01F051FE000009488047094800470D
:10044000FEE7FEE7FEE7FEE7FEE7FEE7FEE7FEE784
:10045000FEE7FEE704480549054A064B70470000E1
:10046000419400089902000830DA0024301A01246F
:1004700030FA002430FA002430B410B50348804725
:1004800030BCAE4630BC024800470000951D050850
:100490003993000800BF704753EA020C00F06980EE
:1004A0002DE9F04B4FF00006002B1FBFB3FA83F588
:1004B00003FA05F424FA05F65E4012BF1643B2FAB9
:1004C00082F502FA05F4C5F120051EBF22FA05FCEB
:1004D00044EA0C04203556EA044C4FEA144418BF91
:1004E000641C4FF000084FF00009904271EB030CC0
:1004F00039D3002919BFB1FA81F701FA07F6B0FA2A
:1005000080F700FA07F6C7F120071EBF20FA07FCA4
:1005100046EA0C062037B6FBF4FCA7EB0507103FB4
:1005200007F01F0BCBF120062CFA06F60CFA0BFB9A
:1005300044BFB3460026202FA4BF5E464FF0000BF9
:100540005BEA060C08BF4FF0010B19EB0B0948EBF7
:100550000608ABFB027C06FB02CC0BFB03CCC01BEA
:1005600071EB0C01C1E70B46024641464846BDE827
:10057000F08B13B5084318BF4FF0FF300146AFF3BF
:100580000080BDE81C4070470FB4044910B503AAB1
:10059000029800F0E7F910BC5DF814FB5403002446
:1005A00040EA0103024630B59B0710D14FF00134F9
:1005B00000E008C208C91D1B9D4315EAC41FF8D0FE
:1005C00013F0FF0102F8011B0DD01B0AF8E711F828
:1005D000013B002B02F8013B05D011F8013B002B39
:1005E00002F8013BF3D130BD10B5431C02E010F816
:1005F000011B71B18107FAD14FF0013202C88C1A88
:100600008C4314EAC211F9D0C01A0A0603D0C01EE6
:1006100010BDC01A10BD0A0401D0801E10BD090211
:10062000FCD0401E10BD032A40F2308010F0030CB5
:1006300000F0158011F8013BBCF1020F624498BF35
:1006400011F801CB00F8013B38BF11F8013BA2F1D2
:10065000040298BF00F801CB38BF00F8013B11F04D
:10066000030300F07383083AC0F0088051F8043B9C
:10067000083A51F804CBA0E80810F5E7121D5CBF5A
:1006800051F8043B40F8043BAFF30080D20724BF8D
:1006900011F8013B11F801CB48BF11F8012B24BF21
:1006A00000F8013B00F801CB48BF00F8012B704770
:1006B00002F0FF0343EA032242EA024200F024B8B8
:1006C0004FF000020429C0F0128010F0030C00F07B
:1006D0001B80CCF1040CBCF1020F18BF00F8012BF9
:1006E000A8BF20F8022BA1EB0C0100F00DB85FEAC7
:1006F000C17C24BF00F8012B00F8012B48BF00F893
:10070000012B70474FF0000200B513469446964601
:10071000203922BFA0E80C50A0E80C50B1F1200114
:10072000BFF4F7AF090728BFA0E80C5048BF0CC0C2
:100730005DF804EB890028BF40F8042B08BF704720
:1007400048BF20F8022B11F0804F18BF00F8012B92
:10075000704700000000000030B44FF0013C50F83A
:10076000042BCCFA52F451F8043BD51A20D1FCB931
:1007700050F8042BCCFA52F451F8043BD51A17D197
:10078000B4B950F8042BCCFA52F451F8043BD51A02
:100790000ED16CB950F8042BCCFA52F451F8043B4A
:1007A000D51A05D1002CDAD030BC4FF000007047CC
:1007B00029BAB1FA81F111F01801D1F12000844079
:1007C000F2D1CA40CB4012F0FF0213F0FF0330BC5D
:1007D000D01A7047704770477047000070B5064CDC
:1007E0007C44064D7D4404E020460168084480476F
:1007F000241DAC42F8D170BDD86B0B00D86B0B0038
:1008000070B5044685690068C10601D5302600E050
:100810002026C00707D070BDD4E90121304690479B
:10082000206A401C20626D1EF6D570BD70B504466E
:1008300085690078C00707D170BDD4E90121202067
:100840009047206A401C20626D1EF6D570BD096875
:100850004A0501D540B27047C905FCD500B27047C2
:1008600009684A0501D5C0B27047C905FCD580B2F8
:10087000704770B50C460546012A05D028788006D9
:1008800000D5EA69002302E0012305E05B1C9342E6
:1008900002D2E05C0028F9D1A869E618C01AA86164
:1008A000286A184428622846FFF7AAFF04E0D5E921
:1008B000012114F8010B9047B442F8D32846FFF702
:1008C000B5FF70BD2DE9F04106460024106875297A
:1008D000314616A510D0FFF7BAFF002802DA4042D1
:1008E00013A507E031688A0701D512A502E0490780
:1008F00004D511A5012401E0FFF7B2FF00210A226F
:1009000006F1240709E0B0FBF2FCB0FBF2F302FBB6
:100910001C00303078541846491C0028F3D1234677
:100920002A463046BDE8F04100F087BA00000000DA
:100930002D0000002B00000020000000116802685C
:10094000006A530501D508700AE0D30501D5088077
:1009500006E0130603D5C217C1E9000200E00860F3
:1009600001207047074B70B50D467B4400F04FFEE9
:100970000446284600F08AFE10B14FF0FF3070BDEB
:10098000204670BDE91E05002DE9FF5F15468A4629
:100990000446DFF8AC80F8440027D8E900103E4652
:1009A000CDE9001010E03AF816106A4602A800F0EF
:1009B0000DFF411C07D02178890603D5E26939185B
:1009C00091420DD80744761C2078800602D5E06954
:1009D000B84205DDAE42E6DB3AF816000028E2D167
:1009E000A069C01BA0612046FFF70AFFD8E90010EC
:1009F000CDE90010002017E03AF818106A4602A866
:100A000000F0E4FEB0F1FF3F81460BD000250DF170
:100A1000080B05E0D4E901211BF8050090476D1C87
:100A20004D45F7D308F10100B0428046E4DB206A6F
:100A3000384420622046FFF7F9FEBDE8FF9F000022
:100A4000521F05002DE9F0418046D21D22F0070219
:100A50000025D2E90002F52915A614D0011E72F175
:100A6000000106DA0023D0EB030063EB020211A6BB
:100A700008E0D8F800108B0701D50FA602E049075F
:100A800001D50EA601251146002408F1240704E033
:100A900000F08EF930323A55641C50EA0102F7D169
:100AA0002B46324621464046BDE8F04100F0C5B92C
:100AB000000000002D0000002B00000020000000BE
:100AC00030B4002100F1240408E002F00705D20848
:100AD000303542EA4372DB086554491C52EA03058B
:100AE000F3D10468002310A2250708D504F02004E0
:100AF0000C4304D0C46901230CA2641EC46130BC41
:100B000000F09BB910B5044621461068FFF7A8FE17
:100B100002462046BDE810400023D1E7D21D22F056
:100B20000701D1E90023CBE70000000030000000FE
:100B3000F0B40D460188090502D5214C7C4402E041
:100B40001F4C7C440E34002100F1240608E002F022
:100B50000F071209E75D42EA03721B097754491C2B
:100B600052EA0307F3D102780023120704D5702D4F
:100B700006D009B1022311342246F0BC00F05DB961
:100B800001231034F8E770B504460D46214610687D
:100B9000FFF766FE024629462046BDE87040002366
:100BA000C6E7D21D22F00703D3E90023C0E703689C
:100BB000126843F0200303600823C3610023B7E7F2
:100BC000B41D05002DE9F05F894604464FF0000A88
:100BD000DFF874B1FB44C0F820A02046E1688847E4
:100BE000002874D0252806D0D4E901219047206A36
:100BF000401C2062F1E700265F462046E1688847F6
:100C00002028054607DB312D05D2781910F8200C75
:100C100008B10643F1E7B00701D526F00406C4F891
:100C20001CA00027C4F818A02A2D09D0284651F08E
:100C30000BFE38B304EB8708303DC8F8185019E0B4
:100C400059F8041B204604EB87029161E16888474C
:100C5000012F054618D1E069002820DA26F0200689
:100C60001DE0D8F8180000EB800005EB400030389C
:100C7000C8F818002046E1688847054651F0E4FDB1
:100C80000028EED1012F0AD02E2D08D12046E16890
:100C900088477F1C0546022F46F02006C4DBA0696A
:100CA000002803DA404246F00106A061F00701D0B7
:100CB00026F010066C2D0BD0682D09D04C2D39D0A4
:100CC0006A2D35D0742D35D07A2D33D016E038E02A
:100CD000E1682F4620468847B842054609D16C2F67
:100CE00026D04FF48060E1680643204688470546D9
:100CF00004E06C2F1AD04FF4807006430DB3A5F1B9
:100D00004100192802D8203546F400664A46294693
:100D1000204626604E46FFF719FB80B101280BD014
:100D2000F61D26F0070000F1080956E74020E4E729
:100D30008020D8E70020D6E706F104094DE72846D1
:100D400052E7206ABDE8F09F441D050010B5203A27
:100D5000C0F00B80B1E81850A0E81850B1E8185066
:100D6000A0E81850203ABFF4F5AF5FEA027C24BF38
:100D7000B1E81850A0E8185044BF18C918C0BDE821
:100D800010405FEA827C24BF51F8043B40F8043BEA
:100D900008BF7047D20728BF31F8023B48BF11F89F
:100DA000012B28BF20F8023B48BF00F8012B7047F9
:100DB00030B5B0F10A0271F100034FEA900E4EEA2D
:100DC000817EB0EB0E0061EB91014FEA101E4EEAFE
:100DD000017E10EB0E0041EB11114FEA102E4EEA8E
:100DE000016E10EB0E0041EB11214FEA104E4EEA5E
:100DF000014E10EB0E0041EB1141401841F1000192
:100E00004FEAD00040EA41704FEAD1014FEA810435
:100E100044EA907410EB800544EB01046D1944EB37
:100E20000404521BA3414FF0000348BF0A3200D50F
:100E300030BD401C41F1000130BD2DE9F0470D46A9
:100E400099469246044600F124080168880604D5B4
:100E5000E06921F01001216000E00120A84201DDDD
:100E6000471B00E00027A1697A1902EB0900081A64
:100E7000A0612078C00602D42046FFF7C1FC0026FE
:100E800008E0D4E901211AF806009047206A401CC6
:100E9000761C20624E45F4DB2078C0060AD5204639
:100EA000FFF7AEFC06E0D4E9012130209047206A2C
:100EB000401C2062381EA7F10107F4DC07E0D4E9EA
:100EC000012118F805009047206A401C2062281E66
:100ED000A5F10105F3DC2046FFF7A8FC2078000609
:100EE00002D50220BDE8F0870120FBE72DE9FF4F86
:100EF0000C461E464FF0FF378BB0D2E90001DDF8FB
:100F000060800A908A46C1F30A5505B93D46002122
:100F100008464FF00000BAF1000F00F4400005DA77
:100F200000EB80004FF4400101EA50004FEA905975
:100F3000B9F1010F00DDB9460A9850EA4A000ED017
:100F400044F61050A5F2FF3545432F14B8F1000FB9
:100F50001ED07542291E1EDDC9F100021CE0B8F149
:100F6000010F4FF0000001D0302103E0F24305E013
:100F70002154401CB042FBDB3046002200212154AA
:100F80000B99C1F80880C1E900200FB0BDE8F08FCF
:100F9000BD1B6D1CDEE74A4600DA694206A800F078
:100FA000D3FC06AB93E8070003AB83E80700504689
:100FB0000A9951F068F88DE80700A0F500501F3835
:100FC00000900398002D0ADD42F21F014A460844B2
:100FD000002303A90390684651F0D2FA09E0A0F576
:100FE00000504A461F38002303A90390684651F079
:100FF000DCFA8DE807000004000C03D04FF0FF304E
:10100000410800E01046B8F1000F03D00022009222
:1010100015461EE0751E05D4FFF7CAFE3032625534
:101020006D1EF9D5B3460122084302D000227F1C71
:1010300004E02078302801D100227F1E002A099781
:1010400084D01DE0112D07DAFFF7B2FE3032625571
:101050006D1C50EA0102F5D1084302D00098C8B1D6
:101060000EE00021681E05E0235C625C635422549C
:10107000401E491C8142F7DBAB46A81B401E09906D
:10108000002004F80B000B98099AC0F80880C0E90A
:10109000002B7AE711264FF0000857E72DE9F04FB3
:1010A00088460446D21D22F0070191B0D1E9000123
:1010B000CDE90A0151F0B0FB02460B98C00F01D0F8
:1010C0002D2007E02068810701D52B2002E0202198
:1010D00001EAC000032A099001D0072A05DB034674
:1010E0004146204600F0F0FB0BE12078800601D558
:1010F000E06900E00620B8F1650F814606D0B8F13E
:10110000660F18D0B8F1670F70D131E00020B9F147
:10111000110F009001DB112301E009F101030AAA7C
:1011200001A90CA8FFF7E2FEDDE90C70002609F129
:101130000105834647E001204B4600904FF00047F1
:101140000AAA01A90CA8FFF7D1FEDDE90DB00C99A0
:101150005D46002610B909F101000D18B9EB050034
:1011600003D4C0F1FF3609F10105A5EB09002BE01E
:10117000B9F1010F01DA4FF001090020B9F1110FA7
:101180000090484601DD112300E003460AAA01A9A8
:101190000CA8FFF7ABFEDDE90C704D460026834638
:1011A000207800070AD4AB4500DA5D4601A8012D7E
:1011B00004DD411911F8011C302907D04F4502DA2E
:1011C00017F1040F04DA012082460FE06D1EEEE7EE
:1011D000002F02DCED1B3E4403E0781CA84200DD3A
:1011E0007D1CB81B00F1010A4FF000472078000772
:1011F00003D4AA4501DB4FF0FF3A0021B7F1004FBD
:101200000DF143088DF8431024D002202B23002F2A
:1012100001DA7F422D230A21021EA0F1010000DC29
:101220005FB197FBF1FC97FBF1F201FB1C7C1746C9
:101230000CF1300C08F801CDEEE7A8F101000370C5
:101240002188090501D5452100E06521A0F10108AB
:1012500000F8011C09980FA9A1EB0807FF1D00B1B8
:101260000120411901EBEA70A1693844081A401EB7
:10127000A0612078C00602D42046FFF7C1FA099881
:1012800028B1D4E901219047206A401C20622078CF
:10129000C00622D52046FFF7B3FA1EE0002E04DB7D
:1012A000B34502DD01A8805D00E03020D4E90121D2
:1012B0009047206A401C2062761CAAF101005FEA78
:1012C000000A0AD100F0D4FAC0680168405CD4E991
:1012D00001219047206A401C2062281EA5F10105CB
:1012E000DCDC07E0D4E9012118F8010B9047206A03
:1012F000401C2062381EA7F10107F3DC2046FFF7EF
:1013000095FA032011B041E62DE9F04F04460D4651
:10131000D21D22F0070089B0D0E90097484639462F
:1013200051F07AFA0246F80F01D02D2307E0206829
:10133000810701D52B2302E0202101EAC0038DF8AB
:1013400020300BB1012000E00020032A824601D0AA
:10135000072A04DB2946204600F0B6FA3FE1207850
:10136000800601D40D2500E0E569C7F30A560D2D6E
:1013700049DA00214FEA175B08464FF00000002FC2
:1013800000F4400007DA00EB80004FF4400100EB6E
:10139000D07001EA60008115012901DD4FF0FF31B5
:1013A00000224FEA850CBCF1180F06D31346ACF1AE
:1013B00018004FF08052C24003E04FF4801323FA2C
:1013C0000CF30CF10C0CBCF1200F04D3ACF1200C8D
:1013D00009FA0CF001E007FA0CF000294FF0004880
:1013E00001DD18B90FE00ED140450CD319EB02090D
:1013F0005F4121B9404502D19F4329EA0209BBEB75
:10140000175F00D0761C2088000502D57B48784401
:1014100002E07A487844193808AA302302F80A30E2
:10142000037C0AF10101002E0AF1020A53546A46B4
:1014300002DC4FF0300101E04FF031014FF00108C4
:101440008DF8001002D0A6F2FF3603E059EA4701FA
:1014500000D06B4E002D02DC2178090704D54FF037
:1014600002082E218DF80110C44600210BE0C7F3BD
:1014700003433F01C35C491C6D1E02F80830052977
:1014800008F1010801DA002DF1DC00210CE000EB8D
:101490001973491C1B786D1E082902F808304FEAA1
:1014A000091908F1010801DA002DF0DC21688B062A
:1014B00002D516E0A8F10108E04505DD02EB0803BE
:1014C00013F8013C302BF5D0B8F1000F09DD02EB29
:1014D000080313F8013C2E2B03D1090701D4A8F10E
:1014E0000108002D05DD3E2102F808106D1E08F1EF
:1014F0000108407C002E02F8080008F1010804DA17
:101500002D20764202F8080002E02B2002F80800A5
:101510000A214FF47A70864208F101080BDB96FB32
:10152000F0F3303302F8083096FBF0F308F10108CD
:1015300000FB136601E0642E0CDB642096FBF0F3E5
:10154000303302F8083096FBF0F308F1010800FB95
:10155000136601E00A2E06DB96FBF1F0303002F84C
:10156000080008F1010896FBF1F001FB1060303033
:1015700002F80800A16908F1010808EB050202EB76
:101580000A00081AA0612078C00602D42046FFF79E
:1015900037F9216A08AE01EB0A00206204E0D4E9C1
:1015A000012116F8010B9047BAF1010AF7D2207811
:1015B000C00602D52046FFF723F96E4609E016F86B
:1015C000010B3E280FD0D4E901219047206A401C2E
:1015D0002062B8F10108F2D22046FFF727F909B0DE
:1015E0000320BDE8F08F206A2844206203E0D4E99C
:1015F0000121302090476D1EEBD3F8E72E15050032
:1016000002FCFFFF01694A1C02610878704700B5BF
:101610008FB0CDE901310021059105497944CDE92B
:10162000031011466846FFF7CDFA0FB000BD000069
:10163000E5FFFFFF10B5436913B1AFF3008001E090
:10164000FFF717F9012010BD127800F124010A708C
:1016500000224A700122EDE711684FF0FF32E9E7FE
:1016600010B5436913B1AFF3008001E0FFF78CF9C7
:10167000012010BD128800F1240182840022C2845E
:101680000122EDE711684FF0FF32E9E7007B00F03F
:101690008000704710B542485421FFF733F84148A5
:1016A0005421FFF72FF840485421FFF72BF83F490A
:1016B0003B483C4A3F4B08603D490A603A49196043
:1016C000531C0365481C1065012008653B48344ADB
:1016D00039A1784400F0B8FA20B9384878440A387B
:1016E00000F059FB37482F4A35A1784400F0ACFA96
:1016F00020B9344878440A3800F04DFB32482A4A71
:101700002FA1784400F0A0FA20B92F4878440A3875
:1017100000F041FB40232248DC000021224600F07B
:1017200070FA20B125487844543800F034FB1D4845
:1017300022464023002100F064FA20B12148784479
:10174000543800F028FB184822461023002100F0EE
:1017500058FA002806D01C487844BDE81040563896
:1017600000F019BB10BD104870B5006D20F00104E9
:101770000B4800F0E1FA0B4800F0DEFA0A4800F0EE
:10178000DBFA09E0206D20F00105204600F0D4FAD4
:10179000204600F071F82C46002CF3D170BD0000FB
:1017A0000003002454030024A803002400000024A4
:1017B0000400002408000024720000006A130500E1
:1017C0007700000059130500321305002DE9F041A0
:1017D00016460C46054600F043F8036893F80101ED
:1017E000012807D0FF2C12D8185D80B101202C7081
:1017F000BDE8F081D3F807013246214603F2071312
:10180000C7182846BC46BDE8F041002360474FF0AA
:10181000FF30EDE7754600F0C5FAAE4605006946B3
:10182000534620F00700854618B020B5FEF712FE9B
:10183000BDE820404FF000064FF000074FF00008D1
:101840004FF0000BAC46ACE8C009ACE8C009ACE80E
:10185000C009ACE8C00921F007018D4670470000BF
:1018600010B500F005F8001D10BD00BF31100500D7
:10187000004870471C04002470B50446051F00F0A2
:1018800095FA0068002C14BF446870BD002C18BF86
:10189000AC423CBF20466468F8D301680A18AA42EB
:1018A00018BF456003D12A680546114401602868C5
:1018B0004119A1421CBF6C6070BD616869602168FC
:1018C0000844286070BD00002DE9F0411F46044621
:1018D00003260168072A01F4006004DB08B116A59D
:1018E00005E016A503E008B115A500E015A521F057
:1018F00010002060A069C01EA0610FB1401EA06151
:101900002046FEF77DFF4FB1D4E9012138469047CC
:10191000206A401C2062C01C206206E0206AFAE7B0
:10192000D4E9012115F8010B9047761EF8D2204624
:10193000FEF77CFFBDE8F0814E414E006E616E0007
:10194000494E4600696E66002DE9F047814616460D
:101950008AB0354878440DC88DE80D003248784487
:10196000801C03AC0DC884E80D0041F69B30084490
:10197000372190FBF1F290FBF1F5A5F1800501FB19
:1019800012041B3C02D56442012000E00020DFF875
:1019900098A080460027FA44AAF1BE0A0EE0E007AC
:1019A0000AD03246684607EB470101230AEB810162
:1019B00050F0FBFD8DE8070064107F1C002CEED179
:1019C000194F7F44AE3F19E0E80715D007EB04102C
:1019D0000DF1180A90E80E008AE80E00C068F04287
:1019E00001D1981908903246012306A903A850F0A6
:1019F000DCFD03AB83E807006D10641C002DE3D110
:101A00004FF0010332466946B8F1000F03A802D037
:101A100050F0B6FD01E050F0C8FDC9E90001C9F879
:101A200008200AB0BDE8F087781005002DE9F047DE
:101A300005460C46C86820F4201040F48000C860B9
:101A4000800602D5084600F0FEFAE06841F2820105
:101A50004FF0FF390140022903D0204600F09CFAE4
:101A6000B5E000F42041B1F5004F0FD1C00306D519
:101A70006168E06A884200D80846606006E0206934
:101A8000E062606060690CF077FDA061A0680022F0
:101A9000EEB200280DDAE1688B050AD4C043A060DD
:101AA00041F490302260E0606068411C6160067023
:101AB000A5E0E0689046226040F40050E0602069B4
:101AC00068BB60690CF07CFD012704F12405A0B11E
:101AD000A08910F4407F08D0E06900F0B2F92061DD
:101AE00018B1E06840F4006016E0E7612561E06845
:101AF00020F4407040F480600EE0E06900F0A1F94D
:101B000000282061F1D0E06840F4006010F4407FCC
:101B1000E06002D140F48070E06020696060E068BD
:101B200025696FF0010AC1051FD56168E06A884226
:101B300000D80846411B04D02246284600F036FA59
:101B4000F0BBE068010203D5E562C4E9015854E046
:101B5000691CE1626160E16940F48030491EC4E9BA
:101B6000021030462E70BDE8F087010202D500F465
:101B700080320AE06068411C61600670E0680A2EED
:101B800040F48030E06006D00022E16A6068814263
:101B900003D90B4602E00122F7E70346A7895B1B46
:101BA0007F0503D4E7699F4200DDE2B1814200D89E
:101BB0000146E5620F1AC4E90158002B09DD00E077
:101BC00005E022461946284600F0F0F908B14846DB
:101BD000C9E747B1A069E5626560C01BA061E06824
:101BE00040F01000E060E068000208D56168A0697C
:101BF000E562491B08446560A0615046B3E7304682
:101C0000B1E770B5C468A50713D0650211D4B2F569
:101C1000807F09D0B2F5007F06D0B2F5806F08D181
:101C2000012300F1240106E05D1E6FF07F46B542FE
:101C300001D3012070BD0161C361416024F4706172
:101C40001143C160002070BD2DE9F0410C461646DD
:101C5000070047D0104600F06FF82078611C61281B
:101C60000AD0722802D077283CD102E00125002456
:101C700005E00225042402E0082448F2020511F8D8
:101C8000010B2B2806D0622809D011F8010C74280A
:101C90000AD00BE045F0030544F00204EFE745F0FD
:101CA000040544F00104EAE744F0100438462146F4
:101CB0000CF0AAFC411C15D00021316171604FF479
:101CC0000071F560F1617061200704D53046022291
:101CD000002100F0E5F8306D40F00100306530463D
:101CE000BDE8F0810020FBE72DE9F0410D460646F6
:101CF000104C206DC10704D0410804D020F001042D
:101D0000F7E722460EE0542000F09BF807000ED0C3
:101D1000206D47F001010843542120653846FEF745
:101D2000F1FC3A4629463046BDE8F0418CE70020F8
:101D3000D6E70000000300242DE9F04704464FF0E9
:101D400000094FF0FF37C568D4E90486A80707D01B
:101D5000204600F055F930460CF0E6FB002802DA88
:101D60003846BDE8F087280502D54046FFF784FDD8
:101D70004C212046FEF7C6FC206D20F001002065B6
:101D80004846EEE710B50446AFF300802046BDE8B4
:101D90001040FEF74ABB10B500F07CF9BDE81040DA
:101DA00000F072B900487047FC03002400487047F7
:101DB00004040024704770477047704738B50446E4
:101DC0000A4600206946AFF30080002808BF38BDEE
:101DD00002460099204600F08DF9012038BD01200F
:101DE00000F072B9F8B5AFF30080054600200C464C
:101DF000102000BF0646A819A0420DD932466946F8
:101E00000020AFF30080070008BF00F05DF90098E4
:101E1000A04218BF0546C419FFF7C8FF0560074672
:101E2000F01D20F007004619284600F05CF9B44286
:101E300008BFF8BDA21B31463868BDE8F84000F085
:101E400059B970B50646FFF7B1FF056806F10B00FA
:101E500020F00704B4429CBF002070BD2B466A6886
:101E6000BAB11068A04210D304F1080188423CBF07
:101E70005068586007D35168101941601168091BF8
:101E8000016058601460101D70BD13465268002A2E
:101E9000E7D121462846FFF791FF0028DED170BD2B
:101EA0002DE9F041044616460D464769007B800740
:101EB0002ED038460CF084FB50BB3EB3012E02D02E
:101EC000022E25D104E0204600F02EF905441DE045
:101ED00038460CF051FBE168002841F01001E16048
:101EE00005DA204600F058F80120BDE8F081C9036A
:101EF0000BD56268E16A914200D81146A26911448B
:101F00002269891A814200DD08460544002D01DA64
:101F10000220EAE7E16A6068E268814206D2910342
:101F2000E06203D522F4003141F01002A6690027D7
:101F3000AE4213DCE16A814201D90B4600E0034660
:101F400003EB060C2369ACEB030CAC4506DD8142C8
:101F500001D98C4600E084469C4505D1A7602760E6
:101F600042F02000A5620DE0AD1BE669AE1B814288
:101F7000A66000D90846C01A281A20605819606067
:101F800022F0200003490840E060002084F84870F7
:101F9000ABE70000BFCFD7FFC16821F4001141F0CB
:101FA0008001C16000218160016070472DE9F04728
:101FB000814614460E464FF0FF383248D5685769BF
:101FC000054209D03846A1690CF062FB002811DBFC
:101FD0002C48C0430540E5602B463246494638460A
:101FE0000CF082FBA16920F00042B21A11440028D3
:101FF000A16103D02046FFF7CFFF4046BDE8F08740
:1020000070B504460569C06A6168884200D8084610
:10201000E16821F42011E160C90312D5A84208D07B
:102020002246411B2846FFF7C1FF10B14FF0FF3099
:1020300070BD0020E562C4E90150E06820F4803002
:10204000E060002070BD10B50446C06820F020009C
:10205000E060A16AA06988420DD02046FFF7D0FF5A
:10206000E06820F4405040F01000E060A06AA061F9
:102070002069E062606044F24001E0688843E0600B
:1020800010BD000010000200002801D000F024B8AC
:102090007047000010B5014602A000F066F801206C
:1020A00010BD000053494752545245443A205265EE
:1020B0006469726563743A2063616E2774206F707F
:1020C000656E3A200000000010B500F067F8BDE82A
:1020D0001040FFF7D9BF000001491820ABBEFEE752
:1020E00026000200704700210160C0E9011070471E
:1020F00010207047034640688C46002818BF88426D
:102100003CBF03464068F8D318681844884207D09B
:102110000CF1030020F00700001D411A521A01467D
:10212000081D0A60FFF7A8BB10B50146C2689007FA
:1021300003D0900607D5886A0AE000F05FF8012115
:102140000160881E10BD8B69486818440B69C01A6D
:1021500091F848301BB191F84910401A10BD110395
:10216000FCD50028FADD401E10BD70B505460C46B2
:102170000A2000E06D1C00F039F835B128780028FD
:10218000F8D102E0641C00F031F814B12078002886
:10219000F8D1BDE870400A2000F028B810B5012839
:1021A00005D0002103A0FFF7E0FF012010BD09A129
:1021B000F8E7000053494752544D454D3A204F75BA
:1021C00074206F662068656170206D656D6F72792F
:1021D000000000003A2048656170206D656D6F72E7
:1021E0007920636F727275707465640008B5694612
:1021F0008DF800000320ABBE08BD0000004870470A
:10220000FC03002400000000FFE7FEE700000000E0
:1022100041F20400CEF200000068704700000000A8
:1022200080B588B007900020029003900798019035
:1022300004F0AAFB0199024602984DF68363C4F2AA
:102240001B33A2FB0332920C514306910390FFF71C
:10225000DFFF0590FFE7FFF7DBFF04900498059987
:1022600088421DD0FFE704980599884207D9FFE707
:1022700004980599411A03980844039007E00599CA
:102280000498401A0399084401380390FFE7049822
:10229000059003980699884201D3FFE701E0FFE724
:1022A000D9E708B080BD00007047000000000000C2
:1022B00080B500F081FF4FF4805001F089FC80BDB3
:1022C00081B0EFF3108072B60090FFE7FEE70000E8
:1022D00082B001904DF68000C2F20040007818B93B
:1022E000FFE7002000900EE00199C1F3C6224DF6F1
:1022F0000000C2F20040805CC1F30221C84000F03F
:1023000001000090FFE7009802B070470000000055
:1023100080B584B0FFE74DF68000C2F200408069CE
:10232000019000F0B1FA0390039807F0E1FF0290EA
:10233000FFE7029801998842EDD1FFE703980299DF
:10234000884203D2FFE706F01BF9FFE7039804B0C9
:1023500080BD00000000000080B58CB0099008919D
:102360000792089820B1FFE70798812803D3FFE779
:1023700000200A90AFE00998FFF7AAFF18B9FFE71D
:1023800001200A90A7E0FFF7C3FF0590BDF82400E5
:102390000990EFF305800B900B9A099840F4002107
:1023A000002A18BF0846099008980690079850B967
:1023B000FFE70998059900231A4600F091F801906B
:1023C00001980A9087E0079808281BD8FFE70020AB
:1023D000029003900699079A02A8FEF724F907983D
:1023E00000F00701099840EA01400990099840F07F
:1023F00040700599029A039B00F072F801900198D1
:102400000A9068E000F044FF01464FF4E02000EA43
:102410000140049006990868496803910290069863
:1024200008300690079808380790049909980843DF
:102430000990099840F080700599029A039B00F07A
:102440004FF80190019818B9FFE700200A9042E088
:1024500004984FF6017108430990FFE7079809288F
:102460001CD3FFE706990868496803910290069813
:102470000830069007980838079009980599029A3D
:10248000039B00F02DF80190099801300990019804
:1024900018B9FFE700200A901DE0DFE70020029056
:1024A00003900699079A02A8FEF7BDF8099820F450
:1024B0007F4009900799099840EA012009900998FE
:1024C00040F000700599029A039B00F009F8019012
:1024D00001980A90FFE70A980CB080BD0000000048
:1024E00080B58CB00A900991089207930720059057
:1024F000FFE7059800286AD0FFE700F0D5FE0490BA
:10250000049800F03F014DF20040C2F2004000EBA1
:102510000110069004994FF4700000EA8130019098
:102520000A9801990843099A4FF0805101EAD201B3
:102530000843089A4FF0005101EA92010843079AB4
:102540004FF0804101EA5201084340F0406003909F
:1025500006980C30039906F06FF903909DF80F0070
:10256000400700282ED5FFE7039880F08060039095
:10257000039880F000400390039800F00040029020
:10258000099820F0004002990843069908600898CD
:1025900020F000400299084306994860079820F00F
:1025A0000040029908430699886006980C30039908
:1025B00007F082FE28B1FFE705F0FAFF01200B903B
:1025C0000AE004E0FFE705980138059091E705F07F
:1025D000E3FF00200B90FFE70B980CB080BD0000DC
:1025E00087B00590049103920498FE2804D8FFE771
:1025F0000398FF2803D3FFE70020069036E0002071
:1026000002900190FFE7019803282CD8FFE7059876
:102610000199C840C007F0B1FFE704980090FFE7B8
:1026200000980399884215D8FFE7009901F0070246
:10263000012000FA02F3029800EBD1024DF60001EE
:10264000C2F20041885C18438854FFE700980130CB
:102650000090E5E7FFE7029820300290FFE701983D
:1026600001300190CFE701200690FFE7069807B000
:10267000704700000000000080B58CB00B900A91FC
:102680004DF68001C2F200410391002008704DF622
:102690000000C2F200408021FEF734F842F6F81044
:1026A000C0F6050018210FF063FF01460398ADF84E
:1026B0002210006A42F26B71CEF2A51188420FD04F
:1026C000FFE74DF68001C2F2004142F26B70CEF29C
:1026D000A5100862BDF8220048800120C8611CE0F6
:1026E0004DF68000C2F200404088BDF822108842BA
:1026F0000AD0FFE7BDF822004DF68001C2F200418A
:1027000048800120C86107E04DF68001C2F2004117
:10271000C8690130C861FFE7FFE74DF68000C2F2EB
:102720000040C069012812D1FFE74DF68001C2F2D6
:1027300000410020487048608860C8604DF2004049
:10274000C2F200404FF48061FDF7DCFF20E0002082
:102750000490FFE704983F2819D8FFE704994DF249
:102760000040C2F2004000EB011009900998C07BC4
:102770004007002806D5FFE70999C86820F04060A7
:10278000C860FFE7FFE7049801300490E2E7FFE745
:102790004DF68000C2F20040C069012817D1FFE762
:1027A00000F082F80690069820B1FFE700F074F878
:1027B000079002E000200790FFE707984DF68001A0
:1027C000C2F20041486100208861086103E000F026
:1027D0006BF80690FFE7069840B3FFE70B980021DF
:1027E0000291FE220192FFF7FBFE0F20EF2211461D
:1027F000FFF7F6FE019A04201146FFF7F1FEFFF7FE
:1028000087FD029B059005994DF68000C2F20040BD
:10281000C2694FF60070C0F20030FFF761FE0A98FF
:1028200018B1FFE700F008F8FFE7FFE706980CB0E3
:1028300080BD00000000000080B584B04DF680002F
:10284000C2F20040007818B1FFE70120039015E0C4
:102850004DF68001C2F20041012001900870FFF79F
:1028600057FD029002994FF60170C0F2003000232C
:102870001A46FFF735FE01980390FFE7039804B06E
:1028800080BD00000000000041F20400CEF2000014
:10289000006870470000000040F20C00C2F20040E7
:1028A00000687047000000004EF6FC51CEF20001B7
:1028B000086840F08070086041F20001CEF200012B
:1028C000086840F001000860012070470000000027
:1028D00080B583B0029001910198006800BBFFE7CA
:1028E0000298006847F6FF718843019A0092516888
:1028F000D2F808E0D2F80CC0136941EA0E0141EAAF
:102900000C0119435369194393691943D369194356
:10291000136A1943526A114308430299086025E07B
:102920000298006820F4F840019AD169136A526A4B
:10293000194311430843029908600298406847F61A
:10294000FF718843019A5168D2F808E0D2F80CC0B0
:10295000136941EA0E0141EA0C0119435369194315
:1029600092691143084302994860FFE7002003B0D1
:1029700080BD00000000000082B00190009101982D
:10298000406943F6FE718843009940EA410001998D
:102990004861002002B0704783B00290019100921C
:1029A000029800696FF31500019A11685368D2F814
:1029B00008C0D26819436FF01F0303EB4C1319438F
:1029C00041EA4221084302990861002003B07047A0
:1029D00010B583B00290019100920098A8BBFFE768
:1029E0000298806800F07040019A11685468D2F82B
:1029F00008E0D2F80CC001396FF00F0303EB0413A9
:102A000019436FF0FF0303EB0E2319434FF200034A
:102A1000CFF6FF7303EB0C331943D2F810C0002339
:102A2000CFF6FF7303EB0C431943D2F814C0002315
:102A3000CFF6F07303EB0C5319439269013A41EA64
:102A400002610843029988603CE00298806840F681
:102A5000FF71CFF60F7108400199CA684B694FF2B8
:102A60000001CFF6FF7101EB02310022CFF6F072C8
:102A700002EB035211430843029988600298C06830
:102A800000F07040019A11685468D2F808E0D2F85A
:102A900010C001396FF00F0303EB041319436FF0FB
:102AA000FF0303EB0E2319430023CFF6FF7303EB61
:102AB0000C4319439269013A41EA026108430299C1
:102AC000C860FFE7002003B010BD00000000000058
:102AD00080B58AB00022ADF82020079206920592B8
:102AE00040F2E421C2F20041087800EB400347F2D3
:102AF000DC00C0F60B0030F81330ADF812300B7864
:102B000003EB430300EB43035B88ADF810308DF813
:102B10000F200A7802EB420200EB42029288013257
:102B2000120A8DF81820097801EB410100EB4100F1
:102B3000808801308DF81900BA2006A90A2200F019
:102B400063F805900598B0F1FF3F03DCFFE7002034
:102B5000099053E09DF81A009DF81B1040EA0120EF
:102B6000ADF812009DF81C009DF81D1040EA0120F0
:102B7000ADF81000FFE7FFE7FFE706A80190FFE7C9
:102B800040F2E421C2F20041087800EB400247F233
:102B9000DC00C0F60B0000EB420292880632120AFB
:102BA0008DF81820097801EB410100EB4100808885
:102BB00006308DF81900BA2006A9032200F024F887
:102BC00005900598B0F1FF3F03DCFFE70020099076
:102BD00014E09DF81A0000F003008DF80F00BDF816
:102BE0001210BDF810209DF80F3046F61370C0F695
:102BF0000B00FDF7C9FC01200990FFE709980AB016
:102C000080BD00000000000080B58CB08DF82F0062
:102C10000A9109924FF0FF30029000200190FFE7E7
:102C2000FFE70020ADF80E009DF82F008DF80C0096
:102C30000220ADF810000A9805900120ADF81A00A6
:102C40009DF82F008DF8180009980238ADF81C0087
:102C50000A9802300890FFE7019804280EDCFFE78D
:102C600003A8022105F080FA02900298022801D1FF
:102C7000FFE703E0019801300190EDE70198052896
:102C80000FDBFFE70A990878497860F30F2109986C
:102C9000821E029B46F64960C0F60B00FDF774FCED
:102CA000FFE702980CB080BD80B586B040F2E42109
:102CB000C2F20041087800EB400247F2DC00C0F6A7
:102CC0000B0000EB420252798DF81420097801EBD9
:102CD000410100EB410080888DF8150005A9881C92
:102CE000033102910390FFE70399029A002001F853
:102CF000010B0191084691420390F5D1FFE70020B6
:102D00008DF81300FF208DF81200FFE7FFE7FFE7C3
:102D10009DF81300411C8DF8131004281ADCFFE7FE
:102D2000BA2005A90322FFF76FFF8DF812009DF965
:102D30001200012805DBFFE79DF812008DF817004F
:102D40000DE09DF8131046F61B60C0F60B00FDF772
:102D50001BFCDDE79DF812008DF81700FFE79DF9D9
:102D6000170006B080BD000080B588B08DF81F0048
:102D7000069105924FF0FF30019000200090FFE790
:102D8000FFE70020ADF80A009DF81F008DF808004D
:102D90000598ADF80C0006980490FFE70098042809
:102DA0000EDCFFE702A8012105F0DEF90190019891
:102DB000012801D1FFE703E0009801300090EDE722
:102DC000009805280FDBFFE706990878497860F33B
:102DD0000F210598821E019B46F69960C0F60B00F4
:102DE000FDF7D2FBFFE7019808B080BD00000000AE
:102DF00080B5FFE7FFE704F0C7FF80BD00000000DB
:102E000080B58AB04FF0FF30089000200790ADF8F1
:102E10001A0005908DF80700FFE7FFE705F098F925
:102E2000FFF742FF08900898B0F1FF3F09DCFFE789
:102E300046F6C850C0F60B00FDF7A6FB08980990AF
:102E40000EE048F2A060C0F20100FFF7E9F900F0DF
:102E50000BF804F0C5FFFFF73BFE00200990FFE7E9
:102E600009980AB080BD000010B588B040F2E42196
:102E7000C2F20041012008704FF0FF3006900020A0
:102E8000059044F281000490FFE7FFE7BA2004A90F
:102E90000822FFF7B9FE06900698B0F1FF3F09DC63
:102EA000FFE746F6EA60C0F60B00FDF76DFB0698FB
:102EB00007907DE19DF81400312846D1FFE79DF889
:102EC0001200392826D1FFE79DF81300312821D1BF
:102ED000FFE79DF8140031281CD1FFE79DF817008B
:102EE0009DF812109DF813209DF814309DF816E0FF
:102EF000EC46CCF804E0CCF8000046F64C70C0F686
:102F00000B00FDF741FB40F2E421C2F20041012039
:102F1000087019E09DF812109DF813209DF81430E8
:102F20009DF815009DF817E09DF81640EC46CCF88A
:102F30000840CCF804E0CCF8000047F23500C0F6B9
:102F40000B00FDF721FBFFE72FE19DF8140035286A
:102F500040F08080FFE79DF8120039282FD1FFE76D
:102F60009DF8130031282AD1FFE79DF81400352879
:102F700025D1FFE79DF81500372820D1FFE79DF800
:102F800012109DF813209DF814309DF815009DF83F
:102F900017E09DF81640EC46CCF80840CCF804E069
:102FA000CCF8000046F67970C0F60B00FDF7ECFA9D
:102FB00040F2E421C2F200410020087049E09DF88F
:102FC000120036282AD1FFE79DF81300312825D1B9
:102FD000FFE79DF81400352820D1FFE79DF8121077
:102FE0009DF813209DF814309DF815009DF817E00A
:102FF0009DF81640EC46CCF80840CCF804E0CCF83C
:10300000000046F6A870C0F60B00FDF7BDFA40F2CE
:10301000E421C2F200410420087019E09DF812106A
:103020009DF813209DF814309DF815009DF817E0C9
:103030009DF81640EC46CCF80840CCF804E0CCF8FB
:10304000000047F23500C0F60B00FDF79DFAFFE7E0
:10305000FFE7A9E09DF8140038284FD1FFE79DF85D
:10306000120035282FD1FFE79DF8130036282AD10A
:10307000FFE79DF81400382825D1FFE79DF81500DB
:10308000382820D1FFE79DF812109DF813209DF8F5
:1030900014309DF815009DF817E09DF81640EC4699
:1030A000CCF80840CCF804E0CCF8000046F6D77025
:1030B000C0F60B00FDF768FA40F2E421C2F20041CD
:1030C0000220087019E09DF812109DF813209DF859
:1030D00014309DF815009DF817E09DF81640EC4659
:1030E000CCF80840CCF804E0CCF8000047F23500FA
:1030F000C0F60B00FDF748FAFFE754E09DF8140016
:10310000372835D1FFE79DF812109DF813209DF860
:1031100014309DF815009DF817E09DF81640EC4618
:10312000CCF80840CCF804E0CCF8000047F20600E8
:10313000C0F60B00FDF728FA9DF81200392816D1C9
:10314000FFE79DF81300312811D1FFE79DF8140027
:1031500037280CD1FFE79DF81500532807D1FFE76A
:1031600040F2E421C2F2004103200870FFE719E0B9
:103170009DF812109DF813209DF814309DF815004D
:103180009DF817E09DF81640EC46CCF80840CCF8C6
:1031900004E0CCF8000047F23500C0F60B00FDF764
:1031A000F3F9FFE7FFE7FFE7FFE706980790FFE780
:1031B000079808B010BD000080B5FFE7FFE700F0FA
:1031C0007FF880BD0000000080B584B003900291BC
:1031D00001920093FFE7FFE7FFE7FFE742F20000FD
:1031E000C5F602004FF48071002200F005FF02983E
:1031F0004DF61C21C2F20041086001984DF62021D5
:10320000C2F2004108604DF61821C2F200410120CF
:1032100008600298039A40F28421C2F2004121F82A
:1032200012000198039A40F28E21C2F2004121F867
:10323000120004B080BD000080B582B001904DF650
:103240001821C2F200410020086046F68E50C0F6F8
:103250000B00FDF799F942F20000C5F602004FF4A9
:103260008071012200F0C8FE019A40F28421C2F26E
:1032700000414FF6FF7021F81200019A40F28E21B2
:10328000C2F2004121F81200FFE7FFE702B080BD63
:1032900080B54DF68000C2F2004001300CF0B4FD64
:1032A00080BD00000000000080B54DF68000C2F235
:1032B000004004300CF098FD80BD000000000000CC
:1032C00080B5A2B0002002908DF8860044F681609F
:1032D000ADF8840016A82C21FDF7F2F9029881219F
:1032E0008DF858104E218DF859108DF857008DF833
:1032F0005600BA218DF85510149013901290119029
:103300008DF843000F904FF0FF300E90FFE7FFE77E
:103310009DF8550016A90C22FFF776FC0E900E982A
:10332000B0F1FF3F08DCFFE70E9946F69850C0F673
:103330000B00FDF729F924E19DF85A008DF856009D
:103340009DF8560008B9FFE71BE19DF856000006FE
:10335000002801D4FFE701E19DF8560000F00F00BE
:103360008DF857009DF85700062801DBFFE7F5E0D0
:103370009DF85700022824DBFFE704A801902821CC
:10338000FDF79EF9019981208DF8100058208DF8E5
:1033900011009DF855009DF857306FF0050202EBC3
:1033A000C302FFF731FC01990E9016A80C300231D0
:1033B0009DF857306FF0070202EBC302FDF733F9B7
:1033C000FFE740F26640C2F2004000889DF85710C7
:1033D00088424EDDFFE700200F90FFE70F9840F294
:1033E0006641C2F200410988884241DAFFE70020C5
:1033F0008DF80F00FFE79DF80F009DF857108842E9
:1034000031DAFFE79DF80F1016A800EBC10003307A
:1034100014901498007800F00F008DF843000F9975
:1034200040F26040C2F20040405C9DF84310884288
:1034300001D1FFE717E09DF80F009DF85710013903
:10344000884209DBFFE70F9940F26040C2F200407A
:10345000405CFFF7F1FEFFE7FFE79DF80F0001304A
:103460008DF80F00C7E7FFE70F9801300F90B5E721
:10347000FFE79DF85700002846D0FFE700200F9097
:10348000FFE70F989DF8571088423CDAFFE70F9945
:1034900016A800EBC100033014901498007800F0D7
:1034A0000F008DF843009DF843000F9A40F26041F1
:1034B000C2F2004188541499487889784FF4483210
:1034C000514340EA912013901499C8780979C1EBCF
:1034D0000111490348F2B512C1F64E32A1FB022197
:1034E00040EA911012901498B0F8050011909DF8E0
:1034F00043001399129A119BFFF766FEFFE70F989E
:1035000001300F90BDE721E040F26640C2F200407A
:103510000088D0B1FFE700200F90FFE70F9840F23E
:103520006641C2F20041098888420DDAFFE70F992F
:1035300040F26040C2F20040405CFFF77DFEFFE7D2
:103540000F9801300F90E9E7FFE7FFE79DF857007C
:1035500040F26641C2F200410880FFE79DF8550045
:1035600021A90322FFF700FC0E900E98B0F1FF3F57
:1035700007DCFFE746F6F250C0F60B00FDF704F853
:10358000FFE722B080BD000087B00690059104924D
:1035900000208DF80F001F200290FFE70299481EBF
:1035A00002900020019051B1FFE70598029901F0C7
:1035B0001F0120FA01F1012088430190FFE70198E3
:1035C000C00708B1FFE7E9E70498009018282BD856
:1035D0000099DFE801F028292929292929291F290B
:1035E00029292929292916292929292929290D00A3
:1035F0000298072804D3FFE701208DF80F00FFE7AA
:1036000016E00298082804D3FFE701208DF80F0088
:10361000FFE70DE00298102804D3FFE701208DF8A2
:103620000F00FFE704E003E001208DF80F00FFE743
:103630009DF80F0078B9FFE7059806990968486179
:1036400006980068806820F01800049908430699DD
:1036500009688860FFE79DF80F0007B07047000019
:1036600080B582B00090009820B9FFE701208DF866
:10367000070057E00098407F38B9FFE70099002025
:103680000877009800F054F8FFE700990220487787
:103690000098007980B9FFE70098016841F6B750BB
:1036A000C0F2C140486100980068806820F01800AE
:1036B0000099096888600BE000988168C268FFF78C
:1036C00063FF20B1FFE701208DF807002AE0FFE744
:1036D0000098407930B9FFE7009801684FF0FF305B
:1036E000086104E00098016800690861FFE700983C
:1036F0000068806820F06000009A116852691043E9
:10370000886000980068806820F08000009A116846
:1037100092691043886000990120487700208DF855
:103720000700FFE79DF8070002B080BD0000000021
:1037300082B001900198006844F60041C5F602018C
:10374000884210D1FFE7FFE744F2E040C5F60200EF
:10375000016841F400210160006800F4002000903D
:103760000098FFE7FFE702B070470000000000008C
:1037700086B00490039104984068B0F5403F06D0AD
:10378000FFE70498406808B1FFE7FFE7FFE7039809
:1037900001280BD1FFE704980399C1EBC10100EBAD
:1037A0008100C06A0B2801D1FFE7FFE7FFE704981B
:1037B00090F86000012804D1FFE702208DF817007F
:1037C0009EE00499012081F86000FFE7FFE704997B
:1037D000022081F8610004980399C1EBC10100EB5C
:1037E000810028300290029948688B680A6949690B
:1037F00040EA034040EA025040EA415000900F2066
:10380000CFF633700190029840680A2805D0FFE790
:1038100002984068092807D1FFE70298C17B009809
:1038200040EA0160009006E00298C168009840EA12
:1038300001600090FFE7039810BBFFE70498006861
:10384000406A0199884300990843049909684862CD
:1038500002980068049909688861029840680A28FB
:1038600005D0FFE702984068092808D1FFE70298D1
:10387000C06820F07F40049909688862FFE731E062
:10388000029840680B280BD1FFE7029881690098E5
:1038900040EA81400090019840F440200190FFE709
:1038A00004980068C0690199884300990843049905
:1038B0000968C8610298006804990968086102985B
:1038C00040680A2805D0FFE702984068092808D117
:1038D000FFE70298C06820F07F40049909680862F9
:1038E000FFE7FFE70499012081F86100FFE70499F1
:1038F000002081F86000FFE700208DF81700FFE747
:103900009DF8170006B0704780B582B0009000980F
:1039100020B9FFE701208DF807004FE0009890F8EC
:10392000610040B9FFE70099002081F8600000982D
:1039300000F04AF8FFE70099022081F86100009842
:10394000006800684FF6BF71CFF6F8710840009B21
:1039500019685A68DB691A431043086000980068C8
:10396000406B40F207118843009B19689A689B6975
:103970001A431043486300980068006C4FF6FF71CB
:103980008843009A1168D268104308640098006860
:10399000406B20F44010009B19681A695B6912059E
:1039A00042EA435210434863009900204866009A57
:1039B000012182F861108DF80700FFE79DF80700EC
:1039C00002B080BD0000000082B001900198006844
:1039D00041F20001C5F20021884210D1FFE7FFE764
:1039E00044F2D440C5F60200016841F010010160C4
:1039F000006800F0100000900098FFE7FFE702B0B9
:103A0000704700000000000080B584B0039000F013
:103A100013FB0290039801900198013048B1FFE731
:103A200040F2E520C2F2004001780198084401907C
:103A3000FFE7FFE700F000FB0299401A0199884276
:103A400001D2FFE7F6E704B080BD000000000000EF
:103A500080B5BCB000203B903A90399038903790B8
:103A600040F25C40C2F20040006808B1FFE7A4E009
:103A700040F25C41C2F200410120086008A80690B3
:103A8000BC21FCF73FFE06984FF0807108910021A1
:103A9000199101F019FD18B1FFE7FEF711FCFFE7DE
:103AA000FFE744F2D440C5F60200016841F48051BA
:103AB0000160006800F4805007900798FFE74FF618
:103AC0008370379002200190389000200290399046
:103AD000032003903A900C2004903B9041F20000A8
:103AE000C5F6020037A9059100F08EF8DDF804C094
:103AF000029B039A0498059948F2371ECDF8DCE042
:103B0000CDF8E0C039933A923B9041F60000C5F6FB
:103B1000020000F079F8DDF804C0029B039A0498D3
:103B200005994CF2037ECDF8DCE0CDF8E0C0399386
:103B30003A923B9040F60040C5F6020000F064F86F
:103B4000DDF804C0029B039A049805994FF63F0ED6
:103B5000CDF8DCE0CDF8E0C039933A923B9041F2E9
:103B60000040C5F6020000F04FF8DDF804C0029BEB
:103B7000039A049805993790CDF8E0C039933A92AA
:103B80003B9040F60000C5F6020000F03DF8DDF87D
:103B900004C0029B039A049805994FF0200ECDF8BB
:103BA000DCE0CDF8E0C039933A923B9041F600401A
:103BB000C5F6020000F028F8FFE73CB080BD000029
:103BC00081B0ADF8020001B07047000000000000B5
:103BD00080B582B0ADF806008820C5F60000006808
:103BE000BDF8061008420BD0FFE7BDF8060088219B
:103BF000C5F600010860BDF80600FFF7E1FFFFE72A
:103C000002B080BD0000000090B00F900E91002027
:103C10000D908020C5F600000A90FFE70E9800681E
:103C20000D99C840002800F0CF81FFE70E9800688A
:103C30000D9A0121914008400C900C98002800F04A
:103C4000BF81FFE70E98406800F00300012807D00D
:103C5000FFE70E98406800F0030002282FD1FFE72D
:103C60000F9880680B900D984100032000FA01F135
:103C70000B9888430B900E98C0680D99490000FA84
:103C800001F10B9808430B900B980F9988600F98DF
:103C900040680B900D99012000FA01F10B988843C0
:103CA0000B900E984068C0F300100D9900FA01F1D6
:103CB0000B9808430B900B980F994860FFE70E98FC
:103CC000406800F00300032818D0FFE70F98C06891
:103CD0000B900D984100032000FA01F10B988843E6
:103CE0000B900E9880680D99490000FA01F10B982D
:103CF00008430B900B980F99C860FFE70E98406837
:103D000000F00300022826D1FFE70F980D996FF00D
:103D1000030202EA51010844006A0B900D9800F07A
:103D2000070081000F2000FA01F10B9888430B90E7
:103D30000E9800690D9901F00701890000FA01F160
:103D40000B9808430B900B980F990D9B02EA5302B6
:103D500011440862FFE70F9800680B900D9841002E
:103D6000032000FA01F10B9888430B900E984068ED
:103D700000F003000D99490000FA01F10B98084387
:103D80000B900B980F9908600E9880798007002897
:103D900000F01581FFE7FFE744F2F440C5F60200AA
:103DA000016841F002010160006800F00200099022
:103DB0000998FFE70D9820F0030040F20841C5F68E
:103DC000000140580B900D9800F0030081000F2077
:103DD00000FA01F10B9888430B900F980021C5F66B
:103DE0000201884203D1FFE7002008907AE00F9893
:103DF00040F20041C5F60201884203D1FFE70120ED
:103E000007906CE00F9840F60001C5F60201884269
:103E100003D1FFE7022006905EE00F9840F60041D4
:103E2000C5F60201884203D1FFE70320059050E068
:103E30000F9841F20001C5F60201884203D1FFE765
:103E40000420049042E00F9841F20041C5F60201BF
:103E5000884203D1FFE70520039034E00F9841F634
:103E60000001C5F60201884203D1FFE70620029057
:103E700026E00F9841F60041C5F60201884203D1C1
:103E8000FFE70720019018E00F9842F20001C5F605
:103E90000201884203D1FFE7082000900AE00F9951
:103EA00042F20042C5F602020A20914208BF0920F0
:103EB0000090FFE700980190FFE701980290FFE76C
:103EC00002980390FFE703980490FFE70498059099
:103ED000FFE705980690FFE706980790FFE7079829
:103EE0000890FFE708980D9901F00301890000FA96
:103EF00001F10B9808430B900B980D9921F00301E9
:103F000040F20842C5F6000288504FF0B040006809
:103F10000B900C990B9888430B900E988079C006F3
:103F2000002805D5FFE70C990B9808430B90FFE795
:103F30000B984FF0B04108600420C5F600000068FF
:103F40000B900C990B9888430B900E988079800603
:103F5000002805D5FFE70C990B9808430B90FFE765
:103F60000B980421C5F6000108600A9840680B9080
:103F70000C990B9888430B900E9880798007002845
:103F800005D5FFE70C990B9808430B90FFE70B98BA
:103F90000A9948600A9800680B900C990B9888431E
:103FA0000B900E988079C00728B1FFE70C990B9809
:103FB00008430B90FFE70B980A990860FFE7FFE7BB
:103FC0000D9801300D9029E610B0704700000000F8
:103FD00083B00290ADF80610029840690090009AF4
:103FE000BDF8060002EA0001904340EA0140029950
:103FF000886103B07047000082B00190ADF80210F4
:104000008DF801209DF8010028B1FFE7BDF80200FE
:104010000199886105E0BDF80200000401998861FA
:10402000FFE702B07047000041F20000C5F6004013
:104030000068000C7047000041F20400CEF200005E
:104040000068C00A4EF24D51C0F21101A0FB0110F0
:1040500080094FF47A714843704700000000000067
:1040600083B001900091019890F8410020283BD145
:10407000FFE7FFE7019890F84000012804D1FFE72F
:1040800002208DF80B0033E00199012081F84000F7
:10409000FFE7FFE70199242081F8410001980168BA
:1040A000086820F00100086001980168086820F4A1
:1040B00080500860009A0198016808681043086001
:1040C00001980168086840F001000860019920200B
:1040D00081F84100FFE70199002081F84000FFE7E7
:1040E00000208DF80B0003E002208DF80B00FFE7A5
:1040F0009DF80B0003B0704784B0029001910298C4
:1041000090F84100202840D1FFE7FFE7029890F89F
:104110004000012804D1FFE702208DF80F0038E0AD
:104120000299012081F84000FFE7FFE7029924206F
:1041300081F8410002980168086820F001000860D9
:104140000298006800680090009820F47060009069
:104150000199009840EA01200090009802990968AE
:10416000086002980168086840F001000860029940
:10417000202081F84100FFE70299002081F84000EB
:10418000FFE700208DF80F0003E002208DF80F00FC
:10419000FFE79DF80F0004B070470000000000002A
:1041A00080B582B00090009820B9FFE701208DF81B
:1041B000070073E0009890F8410040B9FFE70099CC
:1041C000002081F84000009800F08EFAFFE7009987
:1041D000242081F8410000980168086820F001005F
:1041E000086000980168406820F0706008610098DD
:1041F0000168886820F4004088600098C068012841
:1042000007D1FFE700980168806840F400408860AB
:1042100006E000980168806840F404408860FFE789
:104220000098C068022806D1FFE7009801684FF4A3
:1042300000604860FFE700980168486848F20002A3
:10424000C0F200221043486000980168C86820F45A
:104250000040C860009A1168106953699269184358
:1042600040EA0220C860009A1168D069126A1043BF
:10427000086000980168086840F001000860009933
:1042800000204864009A202182F8411000990863B8
:10429000009981F842008DF80700FFE79DF80700BC
:1042A00002B080BD0000000080B588B0DDF828C0F5
:1042B0000690ADF816100492ADF80E30069890F8FE
:1042C0004100202840F0F680FFE7FFE7069890F8CD
:1042D0004000012804D1FFE702208DF81F00EDE027
:1042E0000699012081F84000FFE7FFE7FFF7A4FEF1
:1042F0000290069802996A4611604FF4004101222B
:10430000192303F0B1FF20B1FFE701208DF81F0052
:10431000D4E00699222081F841000699102081F806
:1043200042000699002048640499069A5162BDF83B
:104330000E10069A5185069948630698408DB0F58F
:10434000807F14D3FFE70699FF2008850698BDF803
:10435000161090F82820EC4642F20043C8F2000301
:10436000CCF800304FF0807303F052FF14E0069851
:10437000408D069908850698BDF8161090F82820FB
:10438000EC4642F20043C8F20003CCF800304FF094
:10439000007303F03DFFFFE7FFE70698408D00281C
:1043A0005FD0FFE706980A99029A03F0A5FF20B1B3
:1043B000FFE701208DF81F0080E006980068406A42
:1043C0000699496A08700699486A01304862069958
:1043D000088D013808850699488D0138488506986A
:1043E000408DE8B3FFE70698008DC8BBFFE706984D
:1043F0000A9B02996A4611608021002203F034FF73
:1044000020B1FFE701208DF81F0057E00698408D8E
:10441000B0F5807F11D3FFE70699FF200885069845
:10442000BDF8161090F82820EC460023CCF8003098
:104430004FF0807303F0ECFE11E00698408D069972
:1044400008850698BDF8161090F82820EC46002341
:10445000CCF800304FF0007303F0DAFEFFE7FFE71F
:104460009BE706980A99029A03F0DAFF20B1FFE76A
:1044700001208DF81F0021E0069801682020C86106
:1044800006990A6851684EF60003CFF6006319409A
:104490005160069981F841000699002081F8420098
:1044A000FFE70699002081F84000FFE700208DF823
:1044B0001F0003E002208DF81F00FFE79DF81F009A
:1044C00008B080BD0000000080B588B0DDF828C0CD
:1044D0000690ADF816100492ADF80E30069890F8DC
:1044E0004100202840F0F580FFE7FFE7069890F8AC
:1044F0004000012804D1FFE702208DF81F00ECE006
:104500000699012081F84000FFE7FFE7FFF794FDDF
:104510000290069802996A4611604FF40041012208
:10452000192303F0A1FE20B1FFE701208DF81F0041
:10453000D3E00699212081F841000699102081F8E6
:1045400042000699002048640499069A5162BDF819
:104550000E10069A5185069948630698408DB0F56D
:10456000807F14D3FFE70699FF2008850698BDF8E1
:10457000161090F82820EC4642F20003C8F200031F
:10458000CCF800304FF0807303F042FE14E0069840
:10459000408D069908850698BDF8161090F82820D9
:1045A000EC4642F20003C8F20003CCF800304FF0B2
:1045B000007303F02DFEFFE7FFE70698408D00280B
:1045C0005ED0FFE706980A99029A03F071FF20B1C6
:1045D000FFE701208DF81F007FE006980168406A20
:1045E000007888620699486A013048620699488DC9
:1045F000013848850699088D013808850698408D50
:10460000E8B3FFE70698008DC8BBFFE706980A9B52
:1046100002996A4611608021002203F025FE20B134
:10462000FFE701208DF81F0057E00698408DB0F598
:10463000807F11D3FFE70699FF2008850698BDF813
:10464000161090F82820EC460023CCF800304FF0EC
:10465000807303F0DDFD11E00698408D0699088512
:104660000698BDF8161090F82820EC460023CCF8E8
:1046700000304FF0007303F0CBFDFFE7FFE79CE74E
:1046800006980A99029A03F0CBFE20B1FFE70120B9
:104690008DF81F0021E0069801682020C861069966
:1046A0000A6851684EF60003CFF600631940516066
:1046B000069981F841000699002081F84200FFE741
:1046C0000699002081F84000FFE700208DF81F00C8
:1046D00003E002208DF81F00FFE79DF81F0008B0DF
:1046E00080BD00000000000080B5B8B03790002009
:1046F0003690359034903390329003A8BC21FCF76B
:1047000001F83798006845F20041C4F20001884280
:104710003BD1FFE7082003900020239003A800F07E
:10472000D3FE18B1FFE7FDF7CBFDFFE7FFE744F24B
:10473000E040C5F60200016841F002010160006836
:1047400000F0020002900298FFE7C0203290122091
:1047500033900020349035900420369040F2004091
:10476000C5F6020032A9FFF74FFAFFE744F2E8402E
:10477000C5F60200016841F400110160006800F410
:10478000001001900198FFE7FFE738B080BD0000FE
:1047900040F2E520C2F2004002784DF62821C2F234
:1047A00000410868104408607047000000000000E5
:1047B00080B582B0032000F053FA02F0E5F844F22D
:1047C0001842C5F602021168C1F3032342F6E8114C
:1047D000C0F60501CB5C03F01F03D84000900098A1
:1047E000126802F00F02895C01F01F01C84040F21C
:1047F0001001C2F200410860009840F20C01C2F2C0
:10480000004108600F2000F013F820B1FFE70120FD
:104810008DF8070005E000F0DFF900208DF80700B3
:10482000FFE79DF8070002B080BD00000000000017
:1048300081B000904EF6FC51CEF20001086840F0C5
:104840008070086041F20401CEF20001002008608F
:1048500041F20002CEF20002116841F00101116044
:1048600001B0704700000000B0B586B0049003911D
:104870000292FFE7049890F8A000012804D1FFE716
:1048800002208DF8170049E00499012081F8A0006A
:10489000FFE7FFE70499022081F8A100049A02983B
:1048A000342100FB012100910398019002684368C4
:1048B000D0F808C0D0F80CE004694569CD648C6478
:1048C000C1F844E0C1F840C0CB638A638269C36920
:1048D000D0F820C0D0F824E0846AC56A4D660C6622
:1048E000C1F85CE0C1F858C04B650A65006B88668A
:1048F00004980399029A03F067FE04980168012066
:104900004862049981F8A100FFE70499002081F82A
:10491000A000FFE700208DF81700FFE79DF81700C3
:1049200006B0B0BD0000000080B584B002900298CF
:1049300020B9FFE701208DF80F009EE0029890F863
:10494000A10040B9FFE70299002081F8A000029879
:1049500000F09AF8FFE70299022081F8A10002987E
:104960000168886920F070408861029A1168506877
:10497000D2F808C0D36840EA0C0018431269024319
:104980008869104388610298016888684FF60002C0
:10499000CFF2000210408860029840690004019044
:1049A0000198029B19689B690343886818438860D3
:1049B00002980168C8681040C8600298C069000485
:1049C00001900198029B19681B6A0343C868184349
:1049D000C860029801680869104008610298406A3E
:1049E000000401900198029B19689B6A03430869BF
:1049F00018430861029801684869104048610298AC
:104A0000C06A000401900198029A1168126B024377
:104A1000486910434861029890F8350000020190FF
:104A2000029890F836000004009002980168C86A65
:104A300000F07F40C862009801990143029890F805
:104A400034200A430168C86A1043C86202980168AA
:104A5000486B40F00600486302980168886940F09E
:104A60000100886102990020C1F8A400029A012186
:104A700082F8A1108DF80F00FFE79DF80F0004B039
:104A800080BD00000000000080B5BEB03D90002059
:104A90003C903B903A903990389009A8BC21FBF7A4
:104AA00031FE3D98006841F20001C5F200018842E4
:104AB00040F09080FFE74FF00050099005201290E1
:104AC000322013900220149015900A2016904FF473
:104AD0000060179000201890199009A800F0F4FCCD
:104AE00018B1FFE7FDF7ECFBFFE7FFE744F2E44016
:104AF000C5F60200016841F008010160006800F09D
:104B0000080008900898FFE7FFE744F2E040C5F688
:104B10000200016841F480610160006800F4806077
:104B200007900798FFE7FFE744F2E040C5F6020070
:104B3000016841F400710160006800F400700690A3
:104B40000698FFE7FFE744F2E040C5F6020001687F
:104B500041F480710160006800F480700590059850
:104B6000FFE7FF203890022001903990002002904A
:104B70003A903B900E2003903C9042F60000C5F620
:104B8000020038A90491FFF73FF8019B029A0398AD
:104B900004994FF6FF7CCDF8E0C039933A923B92EE
:104BA0003C9042F20040C5F60200FFF72DF8019B51
:104BB000029A039804994FF4704CCDF8E0C03993F1
:104BC0003A923B923C9042F20000C5F60200FFF799
:104BD0001BF8FFE73EB080BD81B0FFE744F2F44030
:104BE000C5F60200016841F002010160006800F0B2
:104BF000020000900098FFE701B07047000000003D
:104C000080B582B0ADF80600BDF9060005F084FB62
:104C100002B080BD0000000080B582B0ADF8060093
:104C2000BDF9060005F094FB02B080BD0000000055
:104C300080B586B0ADF816000491039205F0A0FB94
:104C40000290BDF91600019002980499039A04F0AD
:104C500023F90146019805F09BFB06B080BD0000DA
:104C600080B582B00190019805F0B6FB02B080BD1E
:104C700080B584B0029044F60C00C5F602000068CE
:104C800000F004010020B0EB910F13D1FFE744F6D0
:104C90000C00C5F60200006800F007000299884287
:104CA00004D0FFE701208DF80F002EE000208DF8E2
:104CB0000F002AE044F60C01C5F60201086820F056
:104CC0000700029A10430860FFF7B6F90190FFE76A
:104CD00044F60400C5F60200006800F4005100200C
:104CE000B0EB513F0DD1FFE7FFF7A6F90199401A4C
:104CF000B0F57A7F04D9FFE701208DF80F0004E0BA
:104D0000E6E700208DF80F00FFE79DF80F0004B0E4
:104D100080BD00000000000080B586B00490FFF761
:104D20008BF90290049820B9FFE701208DF8170055
:104D30006DE00498006A402801D0FFE7FFE704987F
:104D400090F8410048B9FFE7049800F065F804982E
:104D500041F2883100F0ECF8FFE704980068006841
:104D600020F47060049A116893686FF0FF0202EB00
:104D70000322104308600498029B816C6A4611600C
:104D80002021002204F0C4F88DF80F009DF80F00D8
:104D9000C0BBFFE70498006800684FF62F71C0F2AF
:104DA000FF010840049B1968D3F804E0DA68D3F8DF
:104DB0001CC042EA0E6242EA0C021B6A1A4310430C
:104DC00008600498006840684FF6FE01CFF6E07175
:104DD0000840049B1968D3F810C05A699B6942EADD
:104DE0000C421A431043486004980168086840F078
:104DF000010008600499002048640499012081F8AA
:104E00004100FFE79DF80F008DF81700FFE79DF8C0
:104E1000170006B080BD000080B5BEB03D900020F8
:104E20003C903B903A903990389009A8BC21FBF710
:104E300069FC3D98006845F20001C5F200218842F6
:104E400072D1FFE74FF00070099000201B9009A875
:104E500000F03AFB18B1FFE7FDF732FAFFE7FFE792
:104E600044F2D440C5F60200016841F4804101607B
:104E7000006800F4804008900898FFE7FFE744F2DC
:104E8000E040C5F60200016841F0400101600068A1
:104E900000F0400007900798FFE7FFE744F2E0408A
:104EA000C5F60200016841F020010160006800F0D1
:104EB000200006900698FFE74020389002200190DD
:104EC0003990002002903A903B900A2003903C9049
:104ED00041F60000C5F6020038A90591FEF794FEE0
:104EE000019A029805994FF49863389339923A9051
:104EF0003B9009203C9041F20040C5F6020004902E
:104F0000FEF782FEDDF804C0029B039A049805991F
:104F10004FF4407ECDF8E0E0CDF8E4C03A933B9307
:104F20003C92FEF771FEFFE73EB080BD000000003E
:104F300082B00190009100980199886402B0704796
:104F400080B501F0CDFC44F22041C5F602010968AC
:104F5000C1F3021242F6E811C0F60501895C01F0C6
:104F60001F01C84080BD000088B0079044F228406F
:104F7000C5F60200016801F0030106910068C0F364
:104F80000530059044F22C40C5F602000068C0F3DD
:104F900000100490049844F23C41C5F602010968EF
:104FA00089B2C908484300EE100AB8EE400A8DEDF8
:104FB000020A0598002800F01B81FFE70698009080
:104FC00048B1FFE70098012869D0FFE70098022860
:104FD00000F08980ABE044F20040C5F602000068B2
:104FE00000F020010020B0EB511F33D0FFE744F266
:104FF0000040C5F602000068C0F3C10149F200009C
:10500000C0F2D030C84003909DED030AB8EE400ACC
:105010009DED051AB8EE411A80EE010A44F23840BF
:10502000C5F6020000686FF35F2001EE100AB8EECB
:10503000411A9DED022A9FED743A82EE032A31EE69
:10504000021AB7EE002A31EE021A20EE010A8DEDA7
:10505000010A23E09DED050AB8EE401A9FED6C0AA7
:1050600080EE010A44F23840C5F6020000686FF392
:105070005F2001EE100AB8EE411A9DED022A9FED65
:10508000623A82EE032A31EE021AB7EE002A31EEBE
:10509000021A20EE010A8DED010AFFE76BE09DED9B
:1050A000050AB8EE401A9FED590A80EE010A44F253
:1050B0003840C5F6020000686FF35F2001EE100A69
:1050C000B8EE411A9DED022A9FED4F3A82EE032A77
:1050D00031EE021AB7EE002A31EE021A20EE010A72
:1050E0008DED010A47E09DED050AB8EE401A9FEDEF
:1050F000450A80EE010A44F23840C5F60200006815
:105100006FF35F2001EE100AB8EE411A9DED022AFE
:105110009FED3D3A82EE032A31EE021AB7EE002AE5
:1051200031EE021A20EE010A8DED010A23E09DED19
:10513000050AB8EE401A9FED350A80EE010A44F2E6
:105140003840C5F6020000686FF35F2001EE100AD8
:10515000B8EE411A9DED022A9FED2B3A82EE032A0A
:1051600031EE021AB7EE002A31EE021A20EE010AE1
:105170008DED010AFFE79DED010A44F23840C5F6C6
:105180000200016889B2490A01EE101AB8EE411A0C
:10519000B7EE002A31EE021A80EE010A0799BCEE42
:1051A000C00A81ED000A9DED010A0168C1F30641C4
:1051B00001EE101AB8EE411A31EE021A80EE010A21
:1051C0000799BCEEC00A81ED010A9DED010A006855
:1051D000C0F3066001EE100AB8EE411A31EE021A71
:1051E00080EE010A0798BCEEC00A80ED020A07E0D3
:1051F0000799002008600799486007998860FFE7D1
:1052000008B0704720BCBE4B000000460024744A22
:105210000024744C0000000088B0079044F228403D
:10522000C5F60200016801F0030106910068C0F3B1
:105230000550059044F22C40C5F602000068C0F30A
:1052400000200490049844F24441C5F60201096824
:1052500089B2C908484300EE100AB8EE400A8DED45
:10526000020A0598002800F01B81FFE706980090CD
:1052700048B1FFE70098012869D0FFE700980228AD
:1052800000F08980ABE044F20040C5F602000068FF
:1052900000F020010020B0EB511F33D0FFE744F2B3
:1052A0000040C5F602000068C0F3C10149F20000E9
:1052B000C0F2D030C84003909DED030AB8EE400A1A
:1052C0009DED051AB8EE411A80EE010A44F2404005
:1052D000C5F6020000686FF35F2001EE100AB8EE19
:1052E000411A9DED022A9FED743A82EE032A31EEB7
:1052F000021AB7EE002A31EE021A20EE010A8DEDF5
:10530000010A23E09DED050AB8EE401A9FED6C0AF4
:1053100080EE010A44F24040C5F6020000686FF3D7
:105320005F2001EE100AB8EE411A9DED022A9FEDB2
:10533000623A82EE032A31EE021AB7EE002A31EE0B
:10534000021A20EE010A8DED010AFFE76BE09DEDE8
:10535000050AB8EE401A9FED590A80EE010A44F2A0
:105360004040C5F6020000686FF35F2001EE100AAE
:10537000B8EE411A9DED022A9FED4F3A82EE032AC4
:1053800031EE021AB7EE002A31EE021A20EE010ABF
:105390008DED010A47E09DED050AB8EE401A9FED3C
:1053A000450A80EE010A44F24040C5F6020000685A
:1053B0006FF35F2001EE100AB8EE411A9DED022A4C
:1053C0009FED3D3A82EE032A31EE021AB7EE002A33
:1053D00031EE021A20EE010A8DED010A23E09DED67
:1053E000050AB8EE401A9FED350A80EE010A44F234
:1053F0004040C5F6020000686FF35F2001EE100A1E
:10540000B8EE411A9DED022A9FED2B3A82EE032A57
:1054100031EE021AB7EE002A31EE021A20EE010A2E
:105420008DED010AFFE79DED010A44F24040C5F60B
:105430000200016889B2490A01EE101AB8EE411A59
:10544000B7EE002A31EE021A80EE010A0799BCEE8F
:10545000C00A81ED000A9DED010A0168C1F3064111
:1054600001EE101AB8EE411A31EE021A80EE010A6E
:105470000799BCEEC00A81ED010A9DED010A0068A2
:10548000C0F3066001EE100AB8EE411A31EE021ABE
:1054900080EE010A0798BCEEC00A80ED020A07E020
:1054A0000799002008600799486007998860FFE71E
:1054B00008B0704720BCBE4B000000460024744A70
:1054C0000024744C0000000080B59AB018900020B1
:1054D0008DF857008DF856001898C07800070028FE
:1054E00048D5FFE71898406E149078B1FFE71498FC
:1054F000B0F5801F13D0FFE71498B0F5001F16D049
:10550000FFE71498B0F5401F19D019E044F22C4180
:10551000C5F60201086840F40030086014E01898ED
:105520000430022103F034FD8DF857000CE0189888
:105530002430022103F014FE8DF8570004E003E04C
:1055400001208DF85700FFE79DF8570060B9FFE78D
:1055500044F25041C5F60201086820F44010189A40
:10556000526E1043086004E09DF857008DF8560015
:10557000FFE7FFE718984078C007002840D0FFE712
:105580001898406D1390042820D81399DFE801F093
:10559000030C141C1D0044F22C41C5F602010868DE
:1055A00040F40030086015E018980430002103F042
:1055B000EFFC8DF857000DE018982430002103F01F
:1055C000CFFD8DF8570005E004E003E001208DF8E1
:1055D0005700FFE79DF8570060B9FFE744F25041DC
:1055E000C5F60201086820F00700189A526D1043B2
:1055F000086004E09DF857008DF85600FFE7FFE7CC
:1056000018984078800700284BD5FFE71898806DE0
:10561000129088B1FFE71298402816D0FFE7129841
:1056200080281AD0FFE71298C0281ED0FFE71298F2
:10563000B0F5807F1AD01AE044F22C41C5F6020181
:10564000086840F40030086015E018980430002124
:1056500003F09EFC8DF857000DE0189824300021CF
:1056600003F07EFD8DF8570005E004E003E0012023
:105670008DF85700FFE79DF8570060B9FFE744F247
:105680005041C5F60201086820F4E070189A926D46
:105690001043086004E09DF857008DF85600FFE7BE
:1056A000FFE7189840784007002850D5FFE7189882
:1056B000D0F8A4001190A0B1FFE71198B0F5001F39
:1056C00018D0FFE71198B0F5800F1BD0FFE71198B5
:1056D000B0F5C00F1ED0FFE71198B0F5000F1AD03B
:1056E0001AE044F22C41C5F60201086840F400308B
:1056F000086015E018980430002103F049FC8DF88B
:1057000057000DE018982430002103F029FD8DF892
:10571000570005E004E003E001208DF85700FFE7A3
:105720009DF8570068B9FFE744F25841C5F60201F9
:10573000086820F46000189AD2F8A420104308608A
:1057400004E09DF857008DF85600FFE7FFE7189832
:1057500040780007002850D5FFE71898D0F8A80037
:105760001090A0B1FFE71098B0F1807F18D0FFE74C
:105770001098B0F1007F1BD0FFE71098B0F1407F88
:105780001ED0FFE71098B0F1806F1AD01AE044F2F3
:105790002C41C5F60201086840F40030086015E0AD
:1057A00018980430002103F0F3FB8DF857000DE04A
:1057B00018982430002103F0D3FC8DF8570005E041
:1057C00004E003E001208DF85700FFE79DF8570043
:1057D00068B9FFE744F25841C5F60201086820F0B5
:1057E000E060189AD2F8A8201043086004E09DF801
:1057F00057008DF85600FFE7FFE71898C07880073C
:1058000000283ED5FFE71898806C0F90F0B1FFE7B5
:105810000F98102808D0FFE70F9820280DD0FFE739
:105820000F98302811D012E044F22C41C5F6020145
:10583000086840F4003008600DE018980430022138
:1058400003F0A6FB8DF8570005E004E003E001201B
:105850008DF85700FFE79DF8570060B9FFE744F265
:105860004C41C5F60201086820F03000189A926C8D
:105870001043086004E09DF857008DF85600FFE7DC
:10588000FFE718984078C00600284ED5FFE7189823
:10589000C06D0E90A0B1FFE70E98B0F5805F18D0F4
:1058A000FFE70E98B0F5005F1BD0FFE70E98B0F54C
:1058B000405F1ED0FFE70E98B0F5804F1AD01AE077
:1058C00044F22C41C5F60201086840F4003008603B
:1058D00015E018980430002103F05AFB8DF85700AA
:1058E0000DE018982430002103F03AFC8DF85700A1
:1058F00005E004E003E001208DF85700FFE79DF884
:10590000570060B9FFE744F25041C5F6020108684C
:1059100020F4E040189AD26D1043086004E09DF82E
:1059200057008DF85600FFE7FFE71898407880068B
:1059300000284CD5FFE71898006E0D90C8B1FFE71E
:105940000D98B0F5803F15D0FFE70D98B0F5003FFA
:1059500018D0FFE70D98B0F5403F1BD0FFE70D983A
:10596000B0F5802F17D0FFE70D98B0F5A02F13D01A
:1059700013E016E018980430012103F009FB8DF8BC
:1059800057000EE018982430012103F0E9FB8DF850
:10599000570006E005E004E003E001208DF8570021
:1059A000FFE79DF8570060B9FFE744F25041C5F6A4
:1059B0000201086820F4E020189A126E1043086073
:1059C00004E09DF857008DF85600FFE7FFE71898B0
:1059D0004078400600284ED5FFE71898D0F8AC0074
:1059E0000C90C8B1FFE70C98B0F1805F15D0FFE7CD
:1059F0000C98B0F1005F18D0FFE70C98B0F1405F51
:105A00001BD0FFE70C98B0F1804F17D0FFE70C9840
:105A1000B0F1A04F13D013E016E018980430012124
:105A200003F0B6FA8DF857000EE0189824300121E3
:105A300003F096FB8DF8570006E005E004E003E074
:105A400001208DF85700FFE79DF8570068B9FFE780
:105A500044F25841C5F60201086820F0E040189A67
:105A6000D2F8AC201043086004E09DF857008DF890
:105A70005600FFE7FFE718984078000600283BD55E
:105A8000FFE71898C06E0B90D8B1FFE70B98B0F104
:105A9000805F05D0FFE70B98B0F1005F09D011E0FF
:105AA00044F22C41C5F60201086840F40030086059
:105AB0000CE018980430012103F06AFA8DF85700C1
:105AC00004E003E001208DF85700FFE79DF8570040
:105AD00060B9FFE744F25041C5F60201086820F0C2
